{
  "_format": "hh-sol-artifact-1",
  "contractName": "NFTminter",
  "sourceName": "contracts/NFTminter.sol",
  "abi": [
    {
      "inputs": [],
      "stateMutability": "nonpayable",
      "type": "constructor"
    },
    {
      "inputs": [
        {
          "internalType": "address",
          "name": "sender",
          "type": "address"
        },
        {
          "internalType": "uint256",
          "name": "tokenId",
          "type": "uint256"
        },
        {
          "internalType": "address",
          "name": "owner",
          "type": "address"
        }
      ],
      "name": "ERC721IncorrectOwner",
      "type": "error"
    },
    {
      "inputs": [
        {
          "internalType": "address",
          "name": "operator",
          "type": "address"
        },
        {
          "internalType": "uint256",
          "name": "tokenId",
          "type": "uint256"
        }
      ],
      "name": "ERC721InsufficientApproval",
      "type": "error"
    },
    {
      "inputs": [
        {
          "internalType": "address",
          "name": "approver",
          "type": "address"
        }
      ],
      "name": "ERC721InvalidApprover",
      "type": "error"
    },
    {
      "inputs": [
        {
          "internalType": "address",
          "name": "operator",
          "type": "address"
        }
      ],
      "name": "ERC721InvalidOperator",
      "type": "error"
    },
    {
      "inputs": [
        {
          "internalType": "address",
          "name": "owner",
          "type": "address"
        }
      ],
      "name": "ERC721InvalidOwner",
      "type": "error"
    },
    {
      "inputs": [
        {
          "internalType": "address",
          "name": "receiver",
          "type": "address"
        }
      ],
      "name": "ERC721InvalidReceiver",
      "type": "error"
    },
    {
      "inputs": [
        {
          "internalType": "address",
          "name": "sender",
          "type": "address"
        }
      ],
      "name": "ERC721InvalidSender",
      "type": "error"
    },
    {
      "inputs": [
        {
          "internalType": "uint256",
          "name": "tokenId",
          "type": "uint256"
        }
      ],
      "name": "ERC721NonexistentToken",
      "type": "error"
    },
    {
      "inputs": [
        {
          "internalType": "address",
          "name": "owner",
          "type": "address"
        }
      ],
      "name": "OwnableInvalidOwner",
      "type": "error"
    },
    {
      "inputs": [
        {
          "internalType": "address",
          "name": "account",
          "type": "address"
        }
      ],
      "name": "OwnableUnauthorizedAccount",
      "type": "error"
    },
    {
      "anonymous": false,
      "inputs": [
        {
          "indexed": true,
          "internalType": "address",
          "name": "owner",
          "type": "address"
        },
        {
          "indexed": true,
          "internalType": "address",
          "name": "approved",
          "type": "address"
        },
        {
          "indexed": true,
          "internalType": "uint256",
          "name": "tokenId",
          "type": "uint256"
        }
      ],
      "name": "Approval",
      "type": "event"
    },
    {
      "anonymous": false,
      "inputs": [
        {
          "indexed": true,
          "internalType": "address",
          "name": "owner",
          "type": "address"
        },
        {
          "indexed": true,
          "internalType": "address",
          "name": "operator",
          "type": "address"
        },
        {
          "indexed": false,
          "internalType": "bool",
          "name": "approved",
          "type": "bool"
        }
      ],
      "name": "ApprovalForAll",
      "type": "event"
    },
    {
      "anonymous": false,
      "inputs": [
        {
          "indexed": false,
          "internalType": "uint256",
          "name": "_fromTokenId",
          "type": "uint256"
        },
        {
          "indexed": false,
          "internalType": "uint256",
          "name": "_toTokenId",
          "type": "uint256"
        }
      ],
      "name": "BatchMetadataUpdate",
      "type": "event"
    },
    {
      "anonymous": false,
      "inputs": [
        {
          "indexed": false,
          "internalType": "uint256",
          "name": "_tokenId",
          "type": "uint256"
        }
      ],
      "name": "MetadataUpdate",
      "type": "event"
    },
    {
      "anonymous": false,
      "inputs": [
        {
          "indexed": true,
          "internalType": "uint256",
          "name": "tokenId",
          "type": "uint256"
        },
        {
          "indexed": true,
          "internalType": "address",
          "name": "owner",
          "type": "address"
        },
        {
          "indexed": false,
          "internalType": "string",
          "name": "tokenURI",
          "type": "string"
        }
      ],
      "name": "NFTMinted",
      "type": "event"
    },
    {
      "anonymous": false,
      "inputs": [
        {
          "indexed": true,
          "internalType": "uint256",
          "name": "tokenId",
          "type": "uint256"
        },
        {
          "indexed": true,
          "internalType": "address",
          "name": "from",
          "type": "address"
        },
        {
          "indexed": true,
          "internalType": "address",
          "name": "to",
          "type": "address"
        }
      ],
      "name": "NFTTransferred",
      "type": "event"
    },
    {
      "anonymous": false,
      "inputs": [
        {
          "indexed": true,
          "internalType": "address",
          "name": "previousOwner",
          "type": "address"
        },
        {
          "indexed": true,
          "internalType": "address",
          "name": "newOwner",
          "type": "address"
        }
      ],
      "name": "OwnershipTransferred",
      "type": "event"
    },
    {
      "anonymous": false,
      "inputs": [
        {
          "indexed": true,
          "internalType": "address",
          "name": "from",
          "type": "address"
        },
        {
          "indexed": true,
          "internalType": "address",
          "name": "to",
          "type": "address"
        },
        {
          "indexed": true,
          "internalType": "uint256",
          "name": "tokenId",
          "type": "uint256"
        }
      ],
      "name": "Transfer",
      "type": "event"
    },
    {
      "anonymous": false,
      "inputs": [
        {
          "indexed": true,
          "internalType": "uint256",
          "name": "tokenId",
          "type": "uint256"
        },
        {
          "indexed": true,
          "internalType": "address",
          "name": "owner",
          "type": "address"
        },
        {
          "indexed": false,
          "internalType": "string",
          "name": "tokenURI",
          "type": "string"
        }
      ],
      "name": "ticketNFtMinted",
      "type": "event"
    },
    {
      "inputs": [
        {
          "internalType": "string",
          "name": "tokenURI",
          "type": "string"
        }
      ],
      "name": "MintNNFT",
      "outputs": [],
      "stateMutability": "nonpayable",
      "type": "function"
    },
    {
      "inputs": [
        {
          "internalType": "address",
          "name": "to",
          "type": "address"
        },
        {
          "internalType": "uint256",
          "name": "tokenId",
          "type": "uint256"
        }
      ],
      "name": "approve",
      "outputs": [],
      "stateMutability": "nonpayable",
      "type": "function"
    },
    {
      "inputs": [
        {
          "internalType": "address",
          "name": "owner",
          "type": "address"
        }
      ],
      "name": "balanceOf",
      "outputs": [
        {
          "internalType": "uint256",
          "name": "",
          "type": "uint256"
        }
      ],
      "stateMutability": "view",
      "type": "function"
    },
    {
      "inputs": [
        {
          "internalType": "uint256",
          "name": "tokenId",
          "type": "uint256"
        }
      ],
      "name": "getApproved",
      "outputs": [
        {
          "internalType": "address",
          "name": "",
          "type": "address"
        }
      ],
      "stateMutability": "view",
      "type": "function"
    },
    {
      "inputs": [
        {
          "internalType": "uint256",
          "name": "tokenID",
          "type": "uint256"
        }
      ],
      "name": "getNFT",
      "outputs": [
        {
          "internalType": "string",
          "name": "",
          "type": "string"
        },
        {
          "internalType": "address",
          "name": "",
          "type": "address"
        }
      ],
      "stateMutability": "view",
      "type": "function"
    },
    {
      "inputs": [],
      "name": "getTotalNFTs",
      "outputs": [
        {
          "internalType": "uint256",
          "name": "",
          "type": "uint256"
        }
      ],
      "stateMutability": "view",
      "type": "function"
    },
    {
      "inputs": [],
      "name": "getTotalTickets",
      "outputs": [
        {
          "internalType": "uint256",
          "name": "",
          "type": "uint256"
        }
      ],
      "stateMutability": "view",
      "type": "function"
    },
    {
      "inputs": [
        {
          "internalType": "uint256",
          "name": "tokenID",
          "type": "uint256"
        }
      ],
      "name": "getticketNFT",
      "outputs": [
        {
          "internalType": "string",
          "name": "",
          "type": "string"
        },
        {
          "internalType": "address",
          "name": "",
          "type": "address"
        }
      ],
      "stateMutability": "view",
      "type": "function"
    },
    {
      "inputs": [],
      "name": "id",
      "outputs": [
        {
          "internalType": "uint256",
          "name": "",
          "type": "uint256"
        }
      ],
      "stateMutability": "view",
      "type": "function"
    },
    {
      "inputs": [
        {
          "internalType": "address",
          "name": "owner",
          "type": "address"
        },
        {
          "internalType": "address",
          "name": "operator",
          "type": "address"
        }
      ],
      "name": "isApprovedForAll",
      "outputs": [
        {
          "internalType": "bool",
          "name": "",
          "type": "bool"
        }
      ],
      "stateMutability": "view",
      "type": "function"
    },
    {
      "inputs": [],
      "name": "mintid",
      "outputs": [
        {
          "internalType": "uint256",
          "name": "",
          "type": "uint256"
        }
      ],
      "stateMutability": "view",
      "type": "function"
    },
    {
      "inputs": [
        {
          "internalType": "string",
          "name": "tokenURI",
          "type": "string"
        }
      ],
      "name": "mintticket",
      "outputs": [],
      "stateMutability": "nonpayable",
      "type": "function"
    },
    {
      "inputs": [],
      "name": "name",
      "outputs": [
        {
          "internalType": "string",
          "name": "",
          "type": "string"
        }
      ],
      "stateMutability": "view",
      "type": "function"
    },
    {
      "inputs": [],
      "name": "owner",
      "outputs": [
        {
          "internalType": "address",
          "name": "",
          "type": "address"
        }
      ],
      "stateMutability": "view",
      "type": "function"
    },
    {
      "inputs": [
        {
          "internalType": "uint256",
          "name": "tokenId",
          "type": "uint256"
        }
      ],
      "name": "ownerOf",
      "outputs": [
        {
          "internalType": "address",
          "name": "",
          "type": "address"
        }
      ],
      "stateMutability": "view",
      "type": "function"
    },
    {
      "inputs": [],
      "name": "renounceOwnership",
      "outputs": [],
      "stateMutability": "nonpayable",
      "type": "function"
    },
    {
      "inputs": [
        {
          "internalType": "address",
          "name": "from",
          "type": "address"
        },
        {
          "internalType": "address",
          "name": "to",
          "type": "address"
        },
        {
          "internalType": "uint256",
          "name": "tokenId",
          "type": "uint256"
        }
      ],
      "name": "safeTransferFrom",
      "outputs": [],
      "stateMutability": "nonpayable",
      "type": "function"
    },
    {
      "inputs": [
        {
          "internalType": "address",
          "name": "from",
          "type": "address"
        },
        {
          "internalType": "address",
          "name": "to",
          "type": "address"
        },
        {
          "internalType": "uint256",
          "name": "tokenId",
          "type": "uint256"
        },
        {
          "internalType": "bytes",
          "name": "data",
          "type": "bytes"
        }
      ],
      "name": "safeTransferFrom",
      "outputs": [],
      "stateMutability": "nonpayable",
      "type": "function"
    },
    {
      "inputs": [
        {
          "internalType": "address",
          "name": "operator",
          "type": "address"
        },
        {
          "internalType": "bool",
          "name": "approved",
          "type": "bool"
        }
      ],
      "name": "setApprovalForAll",
      "outputs": [],
      "stateMutability": "nonpayable",
      "type": "function"
    },
    {
      "inputs": [
        {
          "internalType": "bytes4",
          "name": "interfaceId",
          "type": "bytes4"
        }
      ],
      "name": "supportsInterface",
      "outputs": [
        {
          "internalType": "bool",
          "name": "",
          "type": "bool"
        }
      ],
      "stateMutability": "view",
      "type": "function"
    },
    {
      "inputs": [],
      "name": "symbol",
      "outputs": [
        {
          "internalType": "string",
          "name": "",
          "type": "string"
        }
      ],
      "stateMutability": "view",
      "type": "function"
    },
    {
      "inputs": [],
      "name": "ticketid",
      "outputs": [
        {
          "internalType": "uint256",
          "name": "",
          "type": "uint256"
        }
      ],
      "stateMutability": "view",
      "type": "function"
    },
    {
      "inputs": [
        {
          "internalType": "uint256",
          "name": "tokenId",
          "type": "uint256"
        }
      ],
      "name": "tokenURI",
      "outputs": [
        {
          "internalType": "string",
          "name": "",
          "type": "string"
        }
      ],
      "stateMutability": "view",
      "type": "function"
    },
    {
      "inputs": [
        {
          "internalType": "uint256",
          "name": "Maxticket",
          "type": "uint256"
        },
        {
          "internalType": "string",
          "name": "tokenURI",
          "type": "string"
        }
      ],
      "name": "totalmint",
      "outputs": [
        {
          "internalType": "uint256",
          "name": "",
          "type": "uint256"
        }
      ],
      "stateMutability": "nonpayable",
      "type": "function"
    },
    {
      "inputs": [
        {
          "internalType": "address",
          "name": "from",
          "type": "address"
        },
        {
          "internalType": "address",
          "name": "to",
          "type": "address"
        },
        {
          "internalType": "uint256",
          "name": "tokenId",
          "type": "uint256"
        }
      ],
      "name": "transferFrom",
      "outputs": [],
      "stateMutability": "nonpayable",
      "type": "function"
    },
    {
      "inputs": [
        {
          "internalType": "address",
          "name": "to",
          "type": "address"
        },
        {
          "internalType": "uint256",
          "name": "tokenId",
          "type": "uint256"
        }
      ],
      "name": "transferNFT",
      "outputs": [],
      "stateMutability": "nonpayable",
      "type": "function"
    },
    {
      "inputs": [
        {
          "internalType": "address",
          "name": "newOwner",
          "type": "address"
        }
      ],
      "name": "transferOwnership",
      "outputs": [],
      "stateMutability": "nonpayable",
      "type": "function"
    }
  ],
  "bytecode": "0x6080604052600060085560006009556000600a5534801561001f57600080fd5b50336040518060400160405280600581526020017f4d794e46540000000000000000000000000000000000000000000000000000008152506040518060400160405280600481526020017f4d4e465400000000000000000000000000000000000000000000000000000000815250816000908161009c919061044c565b5080600190816100ac919061044c565b505050600073ffffffffffffffffffffffffffffffffffffffff168173ffffffffffffffffffffffffffffffffffffffff16036101215760006040517f1e4fbdf7000000000000000000000000000000000000000000000000000000008152600401610118919061055f565b60405180910390fd5b6101308161013660201b60201c565b5061057a565b6000600760009054906101000a900473ffffffffffffffffffffffffffffffffffffffff16905081600760006101000a81548173ffffffffffffffffffffffffffffffffffffffff021916908373ffffffffffffffffffffffffffffffffffffffff1602179055508173ffffffffffffffffffffffffffffffffffffffff168173ffffffffffffffffffffffffffffffffffffffff167f8be0079c531659141344cd1fd0a4f28419497f9722a3daafe3b4186f6b6457e060405160405180910390a35050565b600081519050919050565b7f4e487b7100000000000000000000000000000000000000000000000000000000600052604160045260246000fd5b7f4e487b7100000000000000000000000000000000000000000000000000000000600052602260045260246000fd5b6000600282049050600182168061027d57607f821691505b6020821081036102905761028f610236565b5b50919050565b60008190508160005260206000209050919050565b60006020601f8301049050919050565b600082821b905092915050565b6000600883026102f87fffffffffffffffffffffffffffffffffffffffffffffffffffffffffffffffff826102bb565b61030286836102bb565b95508019841693508086168417925050509392505050565b6000819050919050565b6000819050919050565b600061034961034461033f8461031a565b610324565b61031a565b9050919050565b6000819050919050565b6103638361032e565b61037761036f82610350565b8484546102c8565b825550505050565b600090565b61038c61037f565b61039781848461035a565b505050565b5b818110156103bb576103b0600082610384565b60018101905061039d565b5050565b601f821115610400576103d181610296565b6103da846102ab565b810160208510156103e9578190505b6103fd6103f5856102ab565b83018261039c565b50505b505050565b600082821c905092915050565b600061042360001984600802610405565b1980831691505092915050565b600061043c8383610412565b9150826002028217905092915050565b610455826101fc565b67ffffffffffffffff81111561046e5761046d610207565b5b6104788254610265565b6104838282856103bf565b600060209050601f8311600181146104b657600084156104a4578287015190505b6104ae8582610430565b865550610516565b601f1984166104c486610296565b60005b828110156104ec578489015182556001820191506020850194506020810190506104c7565b868310156105095784890151610505601f891682610412565b8355505b6001600288020188555050505b505050505050565b600073ffffffffffffffffffffffffffffffffffffffff82169050919050565b60006105498261051e565b9050919050565b6105598161053e565b82525050565b60006020820190506105746000830184610550565b92915050565b612f0e806105896000396000f3fe608060405234801561001057600080fd5b50600436106101a95760003560e01c80636c038a68116100f9578063af640d0f11610097578063c87b56dd11610071578063c87b56dd146104aa578063ccc1491f146104da578063e985e9c51461050a578063f2fde38b1461053a576101a9565b8063af640d0f14610454578063b38bcc8114610472578063b88d4fde1461048e576101a9565b80638da5cb5b116100d35780638da5cb5b146103e057806394ab67fe146103fe57806395d89b411461041a578063a22cb46514610438576101a9565b80636c038a681461038a57806370a08231146103a6578063715018a6146103d6576101a9565b806330bdb35111610166578063576f7ea711610140578063576f7ea7146102ed5780635d38dc9e1461031e5780636352211e1461033c5780636648c51a1461036c576101a9565b806330bdb351146102825780633236e5a6146102a057806342842e0e146102d1576101a9565b806301ffc9a7146101ae57806306e8337f146101de57806306fdde03146101fc578063081812fc1461021a578063095ea7b31461024a57806323b872dd14610266575b600080fd5b6101c860048036038101906101c3919061214f565b610556565b6040516101d59190612197565b60405180910390f35b6101e66105b7565b6040516101f391906121cb565b60405180910390f35b6102046105c1565b6040516102119190612276565b60405180910390f35b610234600480360381019061022f91906122c4565b610653565b6040516102419190612332565b60405180910390f35b610264600480360381019061025f9190612379565b61066f565b005b610280600480360381019061027b91906123b9565b610685565b005b61028a610787565b60405161029791906121cb565b60405180910390f35b6102ba60048036038101906102b591906122c4565b610791565b6040516102c892919061240c565b60405180910390f35b6102eb60048036038101906102e691906123b9565b6107b0565b005b610307600480360381019061030291906122c4565b6107d0565b60405161031592919061240c565b60405180910390f35b6103266107ef565b60405161033391906121cb565b60405180910390f35b610356600480360381019061035191906122c4565b6107f5565b6040516103639190612332565b60405180910390f35b610374610807565b60405161038191906121cb565b60405180910390f35b6103a4600480360381019061039f9190612571565b61080d565b005b6103c060048036038101906103bb91906125ba565b610893565b6040516103cd91906121cb565b60405180910390f35b6103de61094d565b005b6103e8610961565b6040516103f59190612332565b60405180910390f35b61041860048036038101906104139190612379565b61098b565b005b610422610ada565b60405161042f9190612276565b60405180910390f35b610452600480360381019061044d9190612613565b610b6c565b005b61045c610b82565b60405161046991906121cb565b60405180910390f35b61048c60048036038101906104879190612571565b610b88565b005b6104a860048036038101906104a391906126f4565b610c1b565b005b6104c460048036038101906104bf91906122c4565b610c40565b6040516104d19190612276565b60405180910390f35b6104f460048036038101906104ef9190612777565b610d53565b60405161050191906121cb565b60405180910390f35b610524600480360381019061051f91906127d3565b610deb565b6040516105319190612197565b60405180910390f35b610554600480360381019061054f91906125ba565b610e7f565b005b6000634906490660e01b7bffffffffffffffffffffffffffffffffffffffffffffffffffffffff1916827bffffffffffffffffffffffffffffffffffffffffffffffffffffffff191614806105b057506105af82610f05565b5b9050919050565b6000600954905090565b6060600080546105d090612842565b80601f01602080910402602001604051908101604052809291908181526020018280546105fc90612842565b80156106495780601f1061061e57610100808354040283529160200191610649565b820191906000526020600020905b81548152906001019060200180831161062c57829003601f168201915b5050505050905090565b600061065e82610fe7565b506106688261106f565b9050919050565b610681828261067c6110ac565b6110b4565b5050565b600073ffffffffffffffffffffffffffffffffffffffff168273ffffffffffffffffffffffffffffffffffffffff16036106f75760006040517f64a0ae920000000000000000000000000000000000000000000000000000000081526004016106ee9190612332565b60405180910390fd5b600061070b83836107066110ac565b6110c6565b90508373ffffffffffffffffffffffffffffffffffffffff168173ffffffffffffffffffffffffffffffffffffffff1614610781578382826040517f64283d7b00000000000000000000000000000000000000000000000000000000815260040161077893929190612873565b60405180910390fd5b50505050565b6000600854905090565b6060600061079e83610c40565b6107a7846107f5565b91509150915091565b6107cb83838360405180602001604052806000815250610c1b565b505050565b606060006107dd83610c40565b6107e6846107f5565b91509150915091565b60095481565b600061080082610fe7565b9050919050565b600a5481565b6000600854905061081e33826112e0565b61082881836112fe565b6008600081548092919061083b906128d9565b91905055503373ffffffffffffffffffffffffffffffffffffffff16817f06becd955c918828f6e985541acbf49cc842c9e9bd569fffc7698e721ef13575846040516108879190612276565b60405180910390a35050565b60008073ffffffffffffffffffffffffffffffffffffffff168273ffffffffffffffffffffffffffffffffffffffff16036109065760006040517f89c62b640000000000000000000000000000000000000000000000000000000081526004016108fd9190612332565b60405180910390fd5b600360008373ffffffffffffffffffffffffffffffffffffffff1673ffffffffffffffffffffffffffffffffffffffff168152602001908152602001600020549050919050565b61095561135a565b61095f60006113e1565b565b6000600760009054906101000a900473ffffffffffffffffffffffffffffffffffffffff16905090565b3373ffffffffffffffffffffffffffffffffffffffff166109ab826107f5565b73ffffffffffffffffffffffffffffffffffffffff1614610a01576040517f08c379a00000000000000000000000000000000000000000000000000000000081526004016109f89061296d565b60405180910390fd5b600073ffffffffffffffffffffffffffffffffffffffff168273ffffffffffffffffffffffffffffffffffffffff1603610a70576040517f08c379a0000000000000000000000000000000000000000000000000000000008152600401610a67906129d9565b60405180910390fd5b610a7b3383836114a7565b8173ffffffffffffffffffffffffffffffffffffffff163373ffffffffffffffffffffffffffffffffffffffff16827f67043fac5fd2bf9edbb46ee495aaed7f97f91d43507d373be2b592af19b8c0a860405160405180910390a45050565b606060018054610ae990612842565b80601f0160208091040260200160405190810160405280929190818152602001828054610b1590612842565b8015610b625780601f10610b3757610100808354040283529160200191610b62565b820191906000526020600020905b815481529060010190602001808311610b4557829003601f168201915b5050505050905090565b610b7e610b776110ac565b8383611614565b5050565b60085481565b60006103e8600954610b9a91906129f9565b9050610ba633826112e0565b610bb081836112fe565b60096000815480929190610bc3906128d9565b91905055503373ffffffffffffffffffffffffffffffffffffffff16817ffd35ff6d3cc9c0752356de6de007c598d1c8f3fc577f3679acac3c33ea50aba784604051610c0f9190612276565b60405180910390a35050565b610c26848484610685565b610c3a610c316110ac565b85858585611783565b50505050565b6060610c4b82610fe7565b506000600660008481526020019081526020016000208054610c6c90612842565b80601f0160208091040260200160405190810160405280929190818152602001828054610c9890612842565b8015610ce55780601f10610cba57610100808354040283529160200191610ce5565b820191906000526020600020905b815481529060010190602001808311610cc857829003601f168201915b505050505090506000610cf6611934565b90506000815103610d0b578192505050610d4e565b600082511115610d40578082604051602001610d28929190612a69565b60405160208183030381529060405292505050610d4e565b610d498461194b565b925050505b919050565b600080600a8190555060008390506014811115610da5576040517f08c379a0000000000000000000000000000000000000000000000000000000008152600401610d9c90612aff565b60405180910390fd5b60005b81811015610dde57610db984610b88565b600a6000815480929190610dcc906128d9565b91905055508080600101915050610da8565b50600a5491505092915050565b6000600560008473ffffffffffffffffffffffffffffffffffffffff1673ffffffffffffffffffffffffffffffffffffffff16815260200190815260200160002060008373ffffffffffffffffffffffffffffffffffffffff1673ffffffffffffffffffffffffffffffffffffffff16815260200190815260200160002060009054906101000a900460ff16905092915050565b610e8761135a565b600073ffffffffffffffffffffffffffffffffffffffff168173ffffffffffffffffffffffffffffffffffffffff1603610ef95760006040517f1e4fbdf7000000000000000000000000000000000000000000000000000000008152600401610ef09190612332565b60405180910390fd5b610f02816113e1565b50565b60007f80ac58cd000000000000000000000000000000000000000000000000000000007bffffffffffffffffffffffffffffffffffffffffffffffffffffffff1916827bffffffffffffffffffffffffffffffffffffffffffffffffffffffff19161480610fd057507f5b5e139f000000000000000000000000000000000000000000000000000000007bffffffffffffffffffffffffffffffffffffffffffffffffffffffff1916827bffffffffffffffffffffffffffffffffffffffffffffffffffffffff1916145b80610fe05750610fdf826119b4565b5b9050919050565b600080610ff383611a1e565b9050600073ffffffffffffffffffffffffffffffffffffffff168173ffffffffffffffffffffffffffffffffffffffff160361106657826040517f7e27328900000000000000000000000000000000000000000000000000000000815260040161105d91906121cb565b60405180910390fd5b80915050919050565b60006004600083815260200190815260200160002060009054906101000a900473ffffffffffffffffffffffffffffffffffffffff169050919050565b600033905090565b6110c18383836001611a5b565b505050565b6000806110d284611a1e565b9050600073ffffffffffffffffffffffffffffffffffffffff168373ffffffffffffffffffffffffffffffffffffffff161461111457611113818486611c20565b5b600073ffffffffffffffffffffffffffffffffffffffff168173ffffffffffffffffffffffffffffffffffffffff16146111a557611156600085600080611a5b565b6001600360008373ffffffffffffffffffffffffffffffffffffffff1673ffffffffffffffffffffffffffffffffffffffff168152602001908152602001600020600082825403925050819055505b600073ffffffffffffffffffffffffffffffffffffffff168573ffffffffffffffffffffffffffffffffffffffff1614611228576001600360008773ffffffffffffffffffffffffffffffffffffffff1673ffffffffffffffffffffffffffffffffffffffff168152602001908152602001600020600082825401925050819055505b846002600086815260200190815260200160002060006101000a81548173ffffffffffffffffffffffffffffffffffffffff021916908373ffffffffffffffffffffffffffffffffffffffff160217905550838573ffffffffffffffffffffffffffffffffffffffff168273ffffffffffffffffffffffffffffffffffffffff167fddf252ad1be2c89b69c2b068fc378daa952ba7f163c4a11628f55a4df523b3ef60405160405180910390a4809150509392505050565b6112fa828260405180602001604052806000815250611ce4565b5050565b8060066000848152602001908152602001600020908161131e9190612ccb565b507ff8e1a15aba9398e019f0b49df1a4fde98ee17ae345cb5f6b5e2c27f5033e8ce78260405161134e91906121cb565b60405180910390a15050565b6113626110ac565b73ffffffffffffffffffffffffffffffffffffffff16611380610961565b73ffffffffffffffffffffffffffffffffffffffff16146113df576113a36110ac565b6040517f118cdaa70000000000000000000000000000000000000000000000000000000081526004016113d69190612332565b60405180910390fd5b565b6000600760009054906101000a900473ffffffffffffffffffffffffffffffffffffffff16905081600760006101000a81548173ffffffffffffffffffffffffffffffffffffffff021916908373ffffffffffffffffffffffffffffffffffffffff1602179055508173ffffffffffffffffffffffffffffffffffffffff168173ffffffffffffffffffffffffffffffffffffffff167f8be0079c531659141344cd1fd0a4f28419497f9722a3daafe3b4186f6b6457e060405160405180910390a35050565b600073ffffffffffffffffffffffffffffffffffffffff168273ffffffffffffffffffffffffffffffffffffffff16036115195760006040517f64a0ae920000000000000000000000000000000000000000000000000000000081526004016115109190612332565b60405180910390fd5b6000611527838360006110c6565b9050600073ffffffffffffffffffffffffffffffffffffffff168173ffffffffffffffffffffffffffffffffffffffff160361159a57816040517f7e27328900000000000000000000000000000000000000000000000000000000815260040161159191906121cb565b60405180910390fd5b8373ffffffffffffffffffffffffffffffffffffffff168173ffffffffffffffffffffffffffffffffffffffff161461160e578382826040517f64283d7b00000000000000000000000000000000000000000000000000000000815260040161160593929190612873565b60405180910390fd5b50505050565b600073ffffffffffffffffffffffffffffffffffffffff168273ffffffffffffffffffffffffffffffffffffffff160361168557816040517f5b08ba1800000000000000000000000000000000000000000000000000000000815260040161167c9190612332565b60405180910390fd5b80600560008573ffffffffffffffffffffffffffffffffffffffff1673ffffffffffffffffffffffffffffffffffffffff16815260200190815260200160002060008473ffffffffffffffffffffffffffffffffffffffff1673ffffffffffffffffffffffffffffffffffffffff16815260200190815260200160002060006101000a81548160ff0219169083151502179055508173ffffffffffffffffffffffffffffffffffffffff168373ffffffffffffffffffffffffffffffffffffffff167f17307eab39ab6107e8899845ad3d59bd9653f200f220920489ca2b5937696c31836040516117769190612197565b60405180910390a3505050565b60008373ffffffffffffffffffffffffffffffffffffffff163b111561192d578273ffffffffffffffffffffffffffffffffffffffff1663150b7a02868685856040518563ffffffff1660e01b81526004016117e29493929190612df2565b6020604051808303816000875af192505050801561181e57506040513d601f19601f8201168201806040525081019061181b9190612e53565b60015b6118a2573d806000811461184e576040519150601f19603f3d011682016040523d82523d6000602084013e611853565b606091505b50600081510361189a57836040517f64a0ae920000000000000000000000000000000000000000000000000000000081526004016118919190612332565b60405180910390fd5b805160208201fd5b63150b7a0260e01b7bffffffffffffffffffffffffffffffffffffffffffffffffffffffff1916817bffffffffffffffffffffffffffffffffffffffffffffffffffffffff19161461192b57836040517f64a0ae920000000000000000000000000000000000000000000000000000000081526004016119229190612332565b60405180910390fd5b505b5050505050565b606060405180602001604052806000815250905090565b606061195682610fe7565b506000611961611934565b9050600081511161198157604051806020016040528060008152506119ac565b8061198b84611d08565b60405160200161199c929190612a69565b6040516020818303038152906040525b915050919050565b60007f01ffc9a7000000000000000000000000000000000000000000000000000000007bffffffffffffffffffffffffffffffffffffffffffffffffffffffff1916827bffffffffffffffffffffffffffffffffffffffffffffffffffffffff1916149050919050565b60006002600083815260200190815260200160002060009054906101000a900473ffffffffffffffffffffffffffffffffffffffff169050919050565b8080611a945750600073ffffffffffffffffffffffffffffffffffffffff168273ffffffffffffffffffffffffffffffffffffffff1614155b15611bc8576000611aa484610fe7565b9050600073ffffffffffffffffffffffffffffffffffffffff168373ffffffffffffffffffffffffffffffffffffffff1614158015611b0f57508273ffffffffffffffffffffffffffffffffffffffff168173ffffffffffffffffffffffffffffffffffffffff1614155b8015611b225750611b208184610deb565b155b15611b6457826040517fa9fbf51f000000000000000000000000000000000000000000000000000000008152600401611b5b9190612332565b60405180910390fd5b8115611bc657838573ffffffffffffffffffffffffffffffffffffffff168273ffffffffffffffffffffffffffffffffffffffff167f8c5be1e5ebec7d5bd14f71427d1e84f3dd0314c0f7b2291e5b200ac8c7c3b92560405160405180910390a45b505b836004600085815260200190815260200160002060006101000a81548173ffffffffffffffffffffffffffffffffffffffff021916908373ffffffffffffffffffffffffffffffffffffffff16021790555050505050565b611c2b838383611dd6565b611cdf57600073ffffffffffffffffffffffffffffffffffffffff168373ffffffffffffffffffffffffffffffffffffffff1603611ca057806040517f7e273289000000000000000000000000000000000000000000000000000000008152600401611c9791906121cb565b60405180910390fd5b81816040517f177e802f000000000000000000000000000000000000000000000000000000008152600401611cd6929190612e80565b60405180910390fd5b505050565b611cee8383611e97565b611d03611cf96110ac565b6000858585611783565b505050565b606060006001611d1784611f90565b01905060008167ffffffffffffffff811115611d3657611d35612446565b5b6040519080825280601f01601f191660200182016040528015611d685781602001600182028036833780820191505090505b509050600082602083010190505b600115611dcb578080600190039150507f3031323334353637383961626364656600000000000000000000000000000000600a86061a8153600a8581611dbf57611dbe612ea9565b5b04945060008503611d76575b819350505050919050565b60008073ffffffffffffffffffffffffffffffffffffffff168373ffffffffffffffffffffffffffffffffffffffff1614158015611e8e57508273ffffffffffffffffffffffffffffffffffffffff168473ffffffffffffffffffffffffffffffffffffffff161480611e4f5750611e4e8484610deb565b5b80611e8d57508273ffffffffffffffffffffffffffffffffffffffff16611e758361106f565b73ffffffffffffffffffffffffffffffffffffffff16145b5b90509392505050565b600073ffffffffffffffffffffffffffffffffffffffff168273ffffffffffffffffffffffffffffffffffffffff1603611f095760006040517f64a0ae92000000000000000000000000000000000000000000000000000000008152600401611f009190612332565b60405180910390fd5b6000611f17838360006110c6565b9050600073ffffffffffffffffffffffffffffffffffffffff168173ffffffffffffffffffffffffffffffffffffffff1614611f8b5760006040517f73c6ac6e000000000000000000000000000000000000000000000000000000008152600401611f829190612332565b60405180910390fd5b505050565b600080600090507a184f03e93ff9f4daa797ed6e38ed64bf6a1f0100000000000000008310611fee577a184f03e93ff9f4daa797ed6e38ed64bf6a1f0100000000000000008381611fe457611fe3612ea9565b5b0492506040810190505b6d04ee2d6d415b85acef8100000000831061202b576d04ee2d6d415b85acef8100000000838161202157612020612ea9565b5b0492506020810190505b662386f26fc10000831061205a57662386f26fc1000083816120505761204f612ea9565b5b0492506010810190505b6305f5e1008310612083576305f5e100838161207957612078612ea9565b5b0492506008810190505b61271083106120a857612710838161209e5761209d612ea9565b5b0492506004810190505b606483106120cb57606483816120c1576120c0612ea9565b5b0492506002810190505b600a83106120da576001810190505b80915050919050565b6000604051905090565b600080fd5b600080fd5b60007fffffffff0000000000000000000000000000000000000000000000000000000082169050919050565b61212c816120f7565b811461213757600080fd5b50565b60008135905061214981612123565b92915050565b600060208284031215612165576121646120ed565b5b60006121738482850161213a565b91505092915050565b60008115159050919050565b6121918161217c565b82525050565b60006020820190506121ac6000830184612188565b92915050565b6000819050919050565b6121c5816121b2565b82525050565b60006020820190506121e060008301846121bc565b92915050565b600081519050919050565b600082825260208201905092915050565b60005b83811015612220578082015181840152602081019050612205565b60008484015250505050565b6000601f19601f8301169050919050565b6000612248826121e6565b61225281856121f1565b9350612262818560208601612202565b61226b8161222c565b840191505092915050565b60006020820190508181036000830152612290818461223d565b905092915050565b6122a1816121b2565b81146122ac57600080fd5b50565b6000813590506122be81612298565b92915050565b6000602082840312156122da576122d96120ed565b5b60006122e8848285016122af565b91505092915050565b600073ffffffffffffffffffffffffffffffffffffffff82169050919050565b600061231c826122f1565b9050919050565b61232c81612311565b82525050565b60006020820190506123476000830184612323565b92915050565b61235681612311565b811461236157600080fd5b50565b6000813590506123738161234d565b92915050565b600080604083850312156123905761238f6120ed565b5b600061239e85828601612364565b92505060206123af858286016122af565b9150509250929050565b6000806000606084860312156123d2576123d16120ed565b5b60006123e086828701612364565b93505060206123f186828701612364565b9250506040612402868287016122af565b9150509250925092565b60006040820190508181036000830152612426818561223d565b90506124356020830184612323565b9392505050565b600080fd5b600080fd5b7f4e487b7100000000000000000000000000000000000000000000000000000000600052604160045260246000fd5b61247e8261222c565b810181811067ffffffffffffffff8211171561249d5761249c612446565b5b80604052505050565b60006124b06120e3565b90506124bc8282612475565b919050565b600067ffffffffffffffff8211156124dc576124db612446565b5b6124e58261222c565b9050602081019050919050565b82818337600083830152505050565b600061251461250f846124c1565b6124a6565b9050828152602081018484840111156125305761252f612441565b5b61253b8482856124f2565b509392505050565b600082601f8301126125585761255761243c565b5b8135612568848260208601612501565b91505092915050565b600060208284031215612587576125866120ed565b5b600082013567ffffffffffffffff8111156125a5576125a46120f2565b5b6125b184828501612543565b91505092915050565b6000602082840312156125d0576125cf6120ed565b5b60006125de84828501612364565b91505092915050565b6125f08161217c565b81146125fb57600080fd5b50565b60008135905061260d816125e7565b92915050565b6000806040838503121561262a576126296120ed565b5b600061263885828601612364565b9250506020612649858286016125fe565b9150509250929050565b600067ffffffffffffffff82111561266e5761266d612446565b5b6126778261222c565b9050602081019050919050565b600061269761269284612653565b6124a6565b9050828152602081018484840111156126b3576126b2612441565b5b6126be8482856124f2565b509392505050565b600082601f8301126126db576126da61243c565b5b81356126eb848260208601612684565b91505092915050565b6000806000806080858703121561270e5761270d6120ed565b5b600061271c87828801612364565b945050602061272d87828801612364565b935050604061273e878288016122af565b925050606085013567ffffffffffffffff81111561275f5761275e6120f2565b5b61276b878288016126c6565b91505092959194509250565b6000806040838503121561278e5761278d6120ed565b5b600061279c858286016122af565b925050602083013567ffffffffffffffff8111156127bd576127bc6120f2565b5b6127c985828601612543565b9150509250929050565b600080604083850312156127ea576127e96120ed565b5b60006127f885828601612364565b925050602061280985828601612364565b9150509250929050565b7f4e487b7100000000000000000000000000000000000000000000000000000000600052602260045260246000fd5b6000600282049050600182168061285a57607f821691505b60208210810361286d5761286c612813565b5b50919050565b60006060820190506128886000830186612323565b61289560208301856121bc565b6128a26040830184612323565b949350505050565b7f4e487b7100000000000000000000000000000000000000000000000000000000600052601160045260246000fd5b60006128e4826121b2565b91507fffffffffffffffffffffffffffffffffffffffffffffffffffffffffffffffff8203612916576129156128aa565b5b600182019050919050565b7f4e6f7420746865206f776e657200000000000000000000000000000000000000600082015250565b6000612957600d836121f1565b915061296282612921565b602082019050919050565b600060208201905081810360008301526129868161294a565b9050919050565b7f496e76616c696420616464726573730000000000000000000000000000000000600082015250565b60006129c3600f836121f1565b91506129ce8261298d565b602082019050919050565b600060208201905081810360008301526129f2816129b6565b9050919050565b6000612a04826121b2565b9150612a0f836121b2565b9250828201905080821115612a2757612a266128aa565b5b92915050565b600081905092915050565b6000612a43826121e6565b612a4d8185612a2d565b9350612a5d818560208601612202565b80840191505092915050565b6000612a758285612a38565b9150612a818284612a38565b91508190509392505050565b7f43616e6e6f74206d696e74206d6f7265207468616e203230206174206120746960008201527f6d65000000000000000000000000000000000000000000000000000000000000602082015250565b6000612ae96022836121f1565b9150612af482612a8d565b604082019050919050565b60006020820190508181036000830152612b1881612adc565b9050919050565b60008190508160005260206000209050919050565b60006020601f8301049050919050565b600082821b905092915050565b600060088302612b817fffffffffffffffffffffffffffffffffffffffffffffffffffffffffffffffff82612b44565b612b8b8683612b44565b95508019841693508086168417925050509392505050565b6000819050919050565b6000612bc8612bc3612bbe846121b2565b612ba3565b6121b2565b9050919050565b6000819050919050565b612be283612bad565b612bf6612bee82612bcf565b848454612b51565b825550505050565b600090565b612c0b612bfe565b612c16818484612bd9565b505050565b5b81811015612c3a57612c2f600082612c03565b600181019050612c1c565b5050565b601f821115612c7f57612c5081612b1f565b612c5984612b34565b81016020851015612c68578190505b612c7c612c7485612b34565b830182612c1b565b50505b505050565b600082821c905092915050565b6000612ca260001984600802612c84565b1980831691505092915050565b6000612cbb8383612c91565b9150826002028217905092915050565b612cd4826121e6565b67ffffffffffffffff811115612ced57612cec612446565b5b612cf78254612842565b612d02828285612c3e565b600060209050601f831160018114612d355760008415612d23578287015190505b612d2d8582612caf565b865550612d95565b601f198416612d4386612b1f565b60005b82811015612d6b57848901518255600182019150602085019450602081019050612d46565b86831015612d885784890151612d84601f891682612c91565b8355505b6001600288020188555050505b505050505050565b600081519050919050565b600082825260208201905092915050565b6000612dc482612d9d565b612dce8185612da8565b9350612dde818560208601612202565b612de78161222c565b840191505092915050565b6000608082019050612e076000830187612323565b612e146020830186612323565b612e2160408301856121bc565b8181036060830152612e338184612db9565b905095945050505050565b600081519050612e4d81612123565b92915050565b600060208284031215612e6957612e686120ed565b5b6000612e7784828501612e3e565b91505092915050565b6000604082019050612e956000830185612323565b612ea260208301846121bc565b9392505050565b7f4e487b7100000000000000000000000000000000000000000000000000000000600052601260045260246000fdfea264697066735822122038157764a5a65b6fbb3c5a4613c6f68c96084014d32753cba25e5824d0821b3a64736f6c634300081c0033",
  "linkReferences": {},
  "deployedLinkReferences": {}
}