{
  "_format": "hh-sol-artifact-1",
  "contractName": "NFTminter",
  "sourceName": "contracts/NFTminter.sol",
  "abi": [
    {
      "inputs": [],
      "stateMutability": "nonpayable",
      "type": "constructor"
    },
    {
      "inputs": [
        {
          "internalType": "address",
          "name": "sender",
          "type": "address"
        },
        {
          "internalType": "uint256",
          "name": "tokenId",
          "type": "uint256"
        },
        {
          "internalType": "address",
          "name": "owner",
          "type": "address"
        }
      ],
      "name": "ERC721IncorrectOwner",
      "type": "error"
    },
    {
      "inputs": [
        {
          "internalType": "address",
          "name": "operator",
          "type": "address"
        },
        {
          "internalType": "uint256",
          "name": "tokenId",
          "type": "uint256"
        }
      ],
      "name": "ERC721InsufficientApproval",
      "type": "error"
    },
    {
      "inputs": [
        {
          "internalType": "address",
          "name": "approver",
          "type": "address"
        }
      ],
      "name": "ERC721InvalidApprover",
      "type": "error"
    },
    {
      "inputs": [
        {
          "internalType": "address",
          "name": "operator",
          "type": "address"
        }
      ],
      "name": "ERC721InvalidOperator",
      "type": "error"
    },
    {
      "inputs": [
        {
          "internalType": "address",
          "name": "owner",
          "type": "address"
        }
      ],
      "name": "ERC721InvalidOwner",
      "type": "error"
    },
    {
      "inputs": [
        {
          "internalType": "address",
          "name": "receiver",
          "type": "address"
        }
      ],
      "name": "ERC721InvalidReceiver",
      "type": "error"
    },
    {
      "inputs": [
        {
          "internalType": "address",
          "name": "sender",
          "type": "address"
        }
      ],
      "name": "ERC721InvalidSender",
      "type": "error"
    },
    {
      "inputs": [
        {
          "internalType": "uint256",
          "name": "tokenId",
          "type": "uint256"
        }
      ],
      "name": "ERC721NonexistentToken",
      "type": "error"
    },
    {
      "inputs": [
        {
          "internalType": "address",
          "name": "owner",
          "type": "address"
        }
      ],
      "name": "OwnableInvalidOwner",
      "type": "error"
    },
    {
      "inputs": [
        {
          "internalType": "address",
          "name": "account",
          "type": "address"
        }
      ],
      "name": "OwnableUnauthorizedAccount",
      "type": "error"
    },
    {
      "anonymous": false,
      "inputs": [
        {
          "indexed": true,
          "internalType": "address",
          "name": "owner",
          "type": "address"
        },
        {
          "indexed": true,
          "internalType": "address",
          "name": "approved",
          "type": "address"
        },
        {
          "indexed": true,
          "internalType": "uint256",
          "name": "tokenId",
          "type": "uint256"
        }
      ],
      "name": "Approval",
      "type": "event"
    },
    {
      "anonymous": false,
      "inputs": [
        {
          "indexed": true,
          "internalType": "address",
          "name": "owner",
          "type": "address"
        },
        {
          "indexed": true,
          "internalType": "address",
          "name": "operator",
          "type": "address"
        },
        {
          "indexed": false,
          "internalType": "bool",
          "name": "approved",
          "type": "bool"
        }
      ],
      "name": "ApprovalForAll",
      "type": "event"
    },
    {
      "anonymous": false,
      "inputs": [
        {
          "indexed": false,
          "internalType": "uint256",
          "name": "_fromTokenId",
          "type": "uint256"
        },
        {
          "indexed": false,
          "internalType": "uint256",
          "name": "_toTokenId",
          "type": "uint256"
        }
      ],
      "name": "BatchMetadataUpdate",
      "type": "event"
    },
    {
      "anonymous": false,
      "inputs": [
        {
          "indexed": false,
          "internalType": "uint256",
          "name": "_tokenId",
          "type": "uint256"
        }
      ],
      "name": "MetadataUpdate",
      "type": "event"
    },
    {
      "anonymous": false,
      "inputs": [
        {
          "indexed": true,
          "internalType": "uint256",
          "name": "tokenId",
          "type": "uint256"
        },
        {
          "indexed": true,
          "internalType": "address",
          "name": "owner",
          "type": "address"
        },
        {
          "indexed": false,
          "internalType": "string",
          "name": "tokenURI",
          "type": "string"
        }
      ],
      "name": "NFTMinted",
      "type": "event"
    },
    {
      "anonymous": false,
      "inputs": [
        {
          "indexed": true,
          "internalType": "uint256",
          "name": "tokenId",
          "type": "uint256"
        },
        {
          "indexed": true,
          "internalType": "address",
          "name": "from",
          "type": "address"
        },
        {
          "indexed": true,
          "internalType": "address",
          "name": "to",
          "type": "address"
        }
      ],
      "name": "NFTTransferred",
      "type": "event"
    },
    {
      "anonymous": false,
      "inputs": [
        {
          "indexed": true,
          "internalType": "address",
          "name": "previousOwner",
          "type": "address"
        },
        {
          "indexed": true,
          "internalType": "address",
          "name": "newOwner",
          "type": "address"
        }
      ],
      "name": "OwnershipTransferred",
      "type": "event"
    },
    {
      "anonymous": false,
      "inputs": [
        {
          "indexed": true,
          "internalType": "address",
          "name": "from",
          "type": "address"
        },
        {
          "indexed": true,
          "internalType": "address",
          "name": "to",
          "type": "address"
        },
        {
          "indexed": true,
          "internalType": "uint256",
          "name": "tokenId",
          "type": "uint256"
        }
      ],
      "name": "Transfer",
      "type": "event"
    },
    {
      "inputs": [
        {
          "internalType": "string",
          "name": "tokenURI",
          "type": "string"
        }
      ],
      "name": "MintNNFT",
      "outputs": [],
      "stateMutability": "nonpayable",
      "type": "function"
    },
    {
      "inputs": [
        {
          "internalType": "address",
          "name": "to",
          "type": "address"
        },
        {
          "internalType": "uint256",
          "name": "tokenId",
          "type": "uint256"
        }
      ],
      "name": "approve",
      "outputs": [],
      "stateMutability": "nonpayable",
      "type": "function"
    },
    {
      "inputs": [
        {
          "internalType": "address",
          "name": "owner",
          "type": "address"
        }
      ],
      "name": "balanceOf",
      "outputs": [
        {
          "internalType": "uint256",
          "name": "",
          "type": "uint256"
        }
      ],
      "stateMutability": "view",
      "type": "function"
    },
    {
      "inputs": [
        {
          "internalType": "uint256",
          "name": "tokenId",
          "type": "uint256"
        }
      ],
      "name": "getApproved",
      "outputs": [
        {
          "internalType": "address",
          "name": "",
          "type": "address"
        }
      ],
      "stateMutability": "view",
      "type": "function"
    },
    {
      "inputs": [
        {
          "internalType": "uint256",
          "name": "tokenID",
          "type": "uint256"
        }
      ],
      "name": "getNFT",
      "outputs": [
        {
          "internalType": "string",
          "name": "",
          "type": "string"
        },
        {
          "internalType": "address",
          "name": "",
          "type": "address"
        }
      ],
      "stateMutability": "view",
      "type": "function"
    },
    {
      "inputs": [],
      "name": "id",
      "outputs": [
        {
          "internalType": "uint256",
          "name": "",
          "type": "uint256"
        }
      ],
      "stateMutability": "view",
      "type": "function"
    },
    {
      "inputs": [
        {
          "internalType": "address",
          "name": "owner",
          "type": "address"
        },
        {
          "internalType": "address",
          "name": "operator",
          "type": "address"
        }
      ],
      "name": "isApprovedForAll",
      "outputs": [
        {
          "internalType": "bool",
          "name": "",
          "type": "bool"
        }
      ],
      "stateMutability": "view",
      "type": "function"
    },
    {
      "inputs": [],
      "name": "name",
      "outputs": [
        {
          "internalType": "string",
          "name": "",
          "type": "string"
        }
      ],
      "stateMutability": "view",
      "type": "function"
    },
    {
      "inputs": [],
      "name": "owner",
      "outputs": [
        {
          "internalType": "address",
          "name": "",
          "type": "address"
        }
      ],
      "stateMutability": "view",
      "type": "function"
    },
    {
      "inputs": [
        {
          "internalType": "uint256",
          "name": "tokenId",
          "type": "uint256"
        }
      ],
      "name": "ownerOf",
      "outputs": [
        {
          "internalType": "address",
          "name": "",
          "type": "address"
        }
      ],
      "stateMutability": "view",
      "type": "function"
    },
    {
      "inputs": [],
      "name": "renounceOwnership",
      "outputs": [],
      "stateMutability": "nonpayable",
      "type": "function"
    },
    {
      "inputs": [
        {
          "internalType": "address",
          "name": "from",
          "type": "address"
        },
        {
          "internalType": "address",
          "name": "to",
          "type": "address"
        },
        {
          "internalType": "uint256",
          "name": "tokenId",
          "type": "uint256"
        }
      ],
      "name": "safeTransferFrom",
      "outputs": [],
      "stateMutability": "nonpayable",
      "type": "function"
    },
    {
      "inputs": [
        {
          "internalType": "address",
          "name": "from",
          "type": "address"
        },
        {
          "internalType": "address",
          "name": "to",
          "type": "address"
        },
        {
          "internalType": "uint256",
          "name": "tokenId",
          "type": "uint256"
        },
        {
          "internalType": "bytes",
          "name": "data",
          "type": "bytes"
        }
      ],
      "name": "safeTransferFrom",
      "outputs": [],
      "stateMutability": "nonpayable",
      "type": "function"
    },
    {
      "inputs": [
        {
          "internalType": "address",
          "name": "operator",
          "type": "address"
        },
        {
          "internalType": "bool",
          "name": "approved",
          "type": "bool"
        }
      ],
      "name": "setApprovalForAll",
      "outputs": [],
      "stateMutability": "nonpayable",
      "type": "function"
    },
    {
      "inputs": [
        {
          "internalType": "bytes4",
          "name": "interfaceId",
          "type": "bytes4"
        }
      ],
      "name": "supportsInterface",
      "outputs": [
        {
          "internalType": "bool",
          "name": "",
          "type": "bool"
        }
      ],
      "stateMutability": "view",
      "type": "function"
    },
    {
      "inputs": [],
      "name": "symbol",
      "outputs": [
        {
          "internalType": "string",
          "name": "",
          "type": "string"
        }
      ],
      "stateMutability": "view",
      "type": "function"
    },
    {
      "inputs": [
        {
          "internalType": "uint256",
          "name": "tokenId",
          "type": "uint256"
        }
      ],
      "name": "tokenURI",
      "outputs": [
        {
          "internalType": "string",
          "name": "",
          "type": "string"
        }
      ],
      "stateMutability": "view",
      "type": "function"
    },
    {
      "inputs": [
        {
          "internalType": "address",
          "name": "from",
          "type": "address"
        },
        {
          "internalType": "address",
          "name": "to",
          "type": "address"
        },
        {
          "internalType": "uint256",
          "name": "tokenId",
          "type": "uint256"
        }
      ],
      "name": "transferFrom",
      "outputs": [],
      "stateMutability": "nonpayable",
      "type": "function"
    },
    {
      "inputs": [
        {
          "internalType": "address",
          "name": "to",
          "type": "address"
        },
        {
          "internalType": "uint256",
          "name": "tokenId",
          "type": "uint256"
        }
      ],
      "name": "transferNFT",
      "outputs": [],
      "stateMutability": "nonpayable",
      "type": "function"
    },
    {
      "inputs": [
        {
          "internalType": "address",
          "name": "newOwner",
          "type": "address"
        }
      ],
      "name": "transferOwnership",
      "outputs": [],
      "stateMutability": "nonpayable",
      "type": "function"
    }
  ],
  "bytecode": "0x6080604052600060085534801561001557600080fd5b50336040518060400160405280600581526020017f4d794e46540000000000000000000000000000000000000000000000000000008152506040518060400160405280600481526020017f4d4e46540000000000000000000000000000000000000000000000000000000081525081600090816100929190610442565b5080600190816100a29190610442565b505050600073ffffffffffffffffffffffffffffffffffffffff168173ffffffffffffffffffffffffffffffffffffffff16036101175760006040517f1e4fbdf700000000000000000000000000000000000000000000000000000000815260040161010e9190610555565b60405180910390fd5b6101268161012c60201b60201c565b50610570565b6000600760009054906101000a900473ffffffffffffffffffffffffffffffffffffffff16905081600760006101000a81548173ffffffffffffffffffffffffffffffffffffffff021916908373ffffffffffffffffffffffffffffffffffffffff1602179055508173ffffffffffffffffffffffffffffffffffffffff168173ffffffffffffffffffffffffffffffffffffffff167f8be0079c531659141344cd1fd0a4f28419497f9722a3daafe3b4186f6b6457e060405160405180910390a35050565b600081519050919050565b7f4e487b7100000000000000000000000000000000000000000000000000000000600052604160045260246000fd5b7f4e487b7100000000000000000000000000000000000000000000000000000000600052602260045260246000fd5b6000600282049050600182168061027357607f821691505b6020821081036102865761028561022c565b5b50919050565b60008190508160005260206000209050919050565b60006020601f8301049050919050565b600082821b905092915050565b6000600883026102ee7fffffffffffffffffffffffffffffffffffffffffffffffffffffffffffffffff826102b1565b6102f886836102b1565b95508019841693508086168417925050509392505050565b6000819050919050565b6000819050919050565b600061033f61033a61033584610310565b61031a565b610310565b9050919050565b6000819050919050565b61035983610324565b61036d61036582610346565b8484546102be565b825550505050565b600090565b610382610375565b61038d818484610350565b505050565b5b818110156103b1576103a660008261037a565b600181019050610393565b5050565b601f8211156103f6576103c78161028c565b6103d0846102a1565b810160208510156103df578190505b6103f36103eb856102a1565b830182610392565b50505b505050565b600082821c905092915050565b6000610419600019846008026103fb565b1980831691505092915050565b60006104328383610408565b9150826002028217905092915050565b61044b826101f2565b67ffffffffffffffff811115610464576104636101fd565b5b61046e825461025b565b6104798282856103b5565b600060209050601f8311600181146104ac576000841561049a578287015190505b6104a48582610426565b86555061050c565b601f1984166104ba8661028c565b60005b828110156104e2578489015182556001820191506020850194506020810190506104bd565b868310156104ff57848901516104fb601f891682610408565b8355505b6001600288020188555050505b505050505050565b600073ffffffffffffffffffffffffffffffffffffffff82169050919050565b600061053f82610514565b9050919050565b61054f81610534565b82525050565b600060208201905061056a6000830184610546565b92915050565b612b108061057f6000396000f3fe608060405234801561001057600080fd5b506004361061012c5760003560e01c8063715018a6116100ad578063af640d0f11610071578063af640d0f1461032e578063b88d4fde1461034c578063c87b56dd14610368578063e985e9c514610398578063f2fde38b146103c85761012c565b8063715018a6146102b05780638da5cb5b146102ba57806394ab67fe146102d857806395d89b41146102f4578063a22cb465146103125761012c565b806342842e0e116100f457806342842e0e146101e7578063576f7ea7146102035780636352211e146102345780636c038a681461026457806370a08231146102805761012c565b806301ffc9a71461013157806306fdde0314610161578063081812fc1461017f578063095ea7b3146101af57806323b872dd146101cb575b600080fd5b61014b60048036038101906101469190611e73565b6103e4565b6040516101589190611ebb565b60405180910390f35b610169610445565b6040516101769190611f66565b60405180910390f35b61019960048036038101906101949190611fbe565b6104d7565b6040516101a6919061202c565b60405180910390f35b6101c960048036038101906101c49190612073565b6104f3565b005b6101e560048036038101906101e091906120b3565b610509565b005b61020160048036038101906101fc91906120b3565b61060b565b005b61021d60048036038101906102189190611fbe565b61062b565b60405161022b929190612106565b60405180910390f35b61024e60048036038101906102499190611fbe565b61064a565b60405161025b919061202c565b60405180910390f35b61027e6004803603810190610279919061226b565b61065c565b005b61029a600480360381019061029591906122b4565b6106e2565b6040516102a791906122f0565b60405180910390f35b6102b861079c565b005b6102c26107b0565b6040516102cf919061202c565b60405180910390f35b6102f260048036038101906102ed9190612073565b6107da565b005b6102fc610929565b6040516103099190611f66565b60405180910390f35b61032c60048036038101906103279190612337565b6109bb565b005b6103366109d1565b60405161034391906122f0565b60405180910390f35b61036660048036038101906103619190612418565b6109d7565b005b610382600480360381019061037d9190611fbe565b6109fc565b60405161038f9190611f66565b60405180910390f35b6103b260048036038101906103ad919061249b565b610b0f565b6040516103bf9190611ebb565b60405180910390f35b6103e260048036038101906103dd91906122b4565b610ba3565b005b6000634906490660e01b7bffffffffffffffffffffffffffffffffffffffffffffffffffffffff1916827bffffffffffffffffffffffffffffffffffffffffffffffffffffffff1916148061043e575061043d82610c29565b5b9050919050565b6060600080546104549061250a565b80601f01602080910402602001604051908101604052809291908181526020018280546104809061250a565b80156104cd5780601f106104a2576101008083540402835291602001916104cd565b820191906000526020600020905b8154815290600101906020018083116104b057829003601f168201915b5050505050905090565b60006104e282610d0b565b506104ec82610d93565b9050919050565b6105058282610500610dd0565b610dd8565b5050565b600073ffffffffffffffffffffffffffffffffffffffff168273ffffffffffffffffffffffffffffffffffffffff160361057b5760006040517f64a0ae92000000000000000000000000000000000000000000000000000000008152600401610572919061202c565b60405180910390fd5b600061058f838361058a610dd0565b610dea565b90508373ffffffffffffffffffffffffffffffffffffffff168173ffffffffffffffffffffffffffffffffffffffff1614610605578382826040517f64283d7b0000000000000000000000000000000000000000000000000000000081526004016105fc9392919061253b565b60405180910390fd5b50505050565b610626838383604051806020016040528060008152506109d7565b505050565b60606000610638836109fc565b6106418461064a565b91509150915091565b600061065582610d0b565b9050919050565b6000600854905061066d3382611004565b6106778183611022565b6008600081548092919061068a906125a1565b91905055503373ffffffffffffffffffffffffffffffffffffffff16817f06becd955c918828f6e985541acbf49cc842c9e9bd569fffc7698e721ef13575846040516106d69190611f66565b60405180910390a35050565b60008073ffffffffffffffffffffffffffffffffffffffff168273ffffffffffffffffffffffffffffffffffffffff16036107555760006040517f89c62b6400000000000000000000000000000000000000000000000000000000815260040161074c919061202c565b60405180910390fd5b600360008373ffffffffffffffffffffffffffffffffffffffff1673ffffffffffffffffffffffffffffffffffffffff168152602001908152602001600020549050919050565b6107a461107e565b6107ae6000611105565b565b6000600760009054906101000a900473ffffffffffffffffffffffffffffffffffffffff16905090565b3373ffffffffffffffffffffffffffffffffffffffff166107fa8261064a565b73ffffffffffffffffffffffffffffffffffffffff1614610850576040517f08c379a000000000000000000000000000000000000000000000000000000000815260040161084790612635565b60405180910390fd5b600073ffffffffffffffffffffffffffffffffffffffff168273ffffffffffffffffffffffffffffffffffffffff16036108bf576040517f08c379a00000000000000000000000000000000000000000000000000000000081526004016108b6906126a1565b60405180910390fd5b6108ca3383836111cb565b8173ffffffffffffffffffffffffffffffffffffffff163373ffffffffffffffffffffffffffffffffffffffff16827f67043fac5fd2bf9edbb46ee495aaed7f97f91d43507d373be2b592af19b8c0a860405160405180910390a45050565b6060600180546109389061250a565b80601f01602080910402602001604051908101604052809291908181526020018280546109649061250a565b80156109b15780601f10610986576101008083540402835291602001916109b1565b820191906000526020600020905b81548152906001019060200180831161099457829003601f168201915b5050505050905090565b6109cd6109c6610dd0565b8383611338565b5050565b60085481565b6109e2848484610509565b6109f66109ed610dd0565b858585856114a7565b50505050565b6060610a0782610d0b565b506000600660008481526020019081526020016000208054610a289061250a565b80601f0160208091040260200160405190810160405280929190818152602001828054610a549061250a565b8015610aa15780601f10610a7657610100808354040283529160200191610aa1565b820191906000526020600020905b815481529060010190602001808311610a8457829003601f168201915b505050505090506000610ab2611658565b90506000815103610ac7578192505050610b0a565b600082511115610afc578082604051602001610ae49291906126fd565b60405160208183030381529060405292505050610b0a565b610b058461166f565b925050505b919050565b6000600560008473ffffffffffffffffffffffffffffffffffffffff1673ffffffffffffffffffffffffffffffffffffffff16815260200190815260200160002060008373ffffffffffffffffffffffffffffffffffffffff1673ffffffffffffffffffffffffffffffffffffffff16815260200190815260200160002060009054906101000a900460ff16905092915050565b610bab61107e565b600073ffffffffffffffffffffffffffffffffffffffff168173ffffffffffffffffffffffffffffffffffffffff1603610c1d5760006040517f1e4fbdf7000000000000000000000000000000000000000000000000000000008152600401610c14919061202c565b60405180910390fd5b610c2681611105565b50565b60007f80ac58cd000000000000000000000000000000000000000000000000000000007bffffffffffffffffffffffffffffffffffffffffffffffffffffffff1916827bffffffffffffffffffffffffffffffffffffffffffffffffffffffff19161480610cf457507f5b5e139f000000000000000000000000000000000000000000000000000000007bffffffffffffffffffffffffffffffffffffffffffffffffffffffff1916827bffffffffffffffffffffffffffffffffffffffffffffffffffffffff1916145b80610d045750610d03826116d8565b5b9050919050565b600080610d1783611742565b9050600073ffffffffffffffffffffffffffffffffffffffff168173ffffffffffffffffffffffffffffffffffffffff1603610d8a57826040517f7e273289000000000000000000000000000000000000000000000000000000008152600401610d8191906122f0565b60405180910390fd5b80915050919050565b60006004600083815260200190815260200160002060009054906101000a900473ffffffffffffffffffffffffffffffffffffffff169050919050565b600033905090565b610de5838383600161177f565b505050565b600080610df684611742565b9050600073ffffffffffffffffffffffffffffffffffffffff168373ffffffffffffffffffffffffffffffffffffffff1614610e3857610e37818486611944565b5b600073ffffffffffffffffffffffffffffffffffffffff168173ffffffffffffffffffffffffffffffffffffffff1614610ec957610e7a60008560008061177f565b6001600360008373ffffffffffffffffffffffffffffffffffffffff1673ffffffffffffffffffffffffffffffffffffffff168152602001908152602001600020600082825403925050819055505b600073ffffffffffffffffffffffffffffffffffffffff168573ffffffffffffffffffffffffffffffffffffffff1614610f4c576001600360008773ffffffffffffffffffffffffffffffffffffffff1673ffffffffffffffffffffffffffffffffffffffff168152602001908152602001600020600082825401925050819055505b846002600086815260200190815260200160002060006101000a81548173ffffffffffffffffffffffffffffffffffffffff021916908373ffffffffffffffffffffffffffffffffffffffff160217905550838573ffffffffffffffffffffffffffffffffffffffff168273ffffffffffffffffffffffffffffffffffffffff167fddf252ad1be2c89b69c2b068fc378daa952ba7f163c4a11628f55a4df523b3ef60405160405180910390a4809150509392505050565b61101e828260405180602001604052806000815250611a08565b5050565b8060066000848152602001908152602001600020908161104291906128cd565b507ff8e1a15aba9398e019f0b49df1a4fde98ee17ae345cb5f6b5e2c27f5033e8ce78260405161107291906122f0565b60405180910390a15050565b611086610dd0565b73ffffffffffffffffffffffffffffffffffffffff166110a46107b0565b73ffffffffffffffffffffffffffffffffffffffff1614611103576110c7610dd0565b6040517f118cdaa70000000000000000000000000000000000000000000000000000000081526004016110fa919061202c565b60405180910390fd5b565b6000600760009054906101000a900473ffffffffffffffffffffffffffffffffffffffff16905081600760006101000a81548173ffffffffffffffffffffffffffffffffffffffff021916908373ffffffffffffffffffffffffffffffffffffffff1602179055508173ffffffffffffffffffffffffffffffffffffffff168173ffffffffffffffffffffffffffffffffffffffff167f8be0079c531659141344cd1fd0a4f28419497f9722a3daafe3b4186f6b6457e060405160405180910390a35050565b600073ffffffffffffffffffffffffffffffffffffffff168273ffffffffffffffffffffffffffffffffffffffff160361123d5760006040517f64a0ae92000000000000000000000000000000000000000000000000000000008152600401611234919061202c565b60405180910390fd5b600061124b83836000610dea565b9050600073ffffffffffffffffffffffffffffffffffffffff168173ffffffffffffffffffffffffffffffffffffffff16036112be57816040517f7e2732890000000000000000000000000000000000000000000000000000000081526004016112b591906122f0565b60405180910390fd5b8373ffffffffffffffffffffffffffffffffffffffff168173ffffffffffffffffffffffffffffffffffffffff1614611332578382826040517f64283d7b0000000000000000000000000000000000000000000000000000000081526004016113299392919061253b565b60405180910390fd5b50505050565b600073ffffffffffffffffffffffffffffffffffffffff168273ffffffffffffffffffffffffffffffffffffffff16036113a957816040517f5b08ba180000000000000000000000000000000000000000000000000000000081526004016113a0919061202c565b60405180910390fd5b80600560008573ffffffffffffffffffffffffffffffffffffffff1673ffffffffffffffffffffffffffffffffffffffff16815260200190815260200160002060008473ffffffffffffffffffffffffffffffffffffffff1673ffffffffffffffffffffffffffffffffffffffff16815260200190815260200160002060006101000a81548160ff0219169083151502179055508173ffffffffffffffffffffffffffffffffffffffff168373ffffffffffffffffffffffffffffffffffffffff167f17307eab39ab6107e8899845ad3d59bd9653f200f220920489ca2b5937696c318360405161149a9190611ebb565b60405180910390a3505050565b60008373ffffffffffffffffffffffffffffffffffffffff163b1115611651578273ffffffffffffffffffffffffffffffffffffffff1663150b7a02868685856040518563ffffffff1660e01b815260040161150694939291906129f4565b6020604051808303816000875af192505050801561154257506040513d601f19601f8201168201806040525081019061153f9190612a55565b60015b6115c6573d8060008114611572576040519150601f19603f3d011682016040523d82523d6000602084013e611577565b606091505b5060008151036115be57836040517f64a0ae920000000000000000000000000000000000000000000000000000000081526004016115b5919061202c565b60405180910390fd5b805160208201fd5b63150b7a0260e01b7bffffffffffffffffffffffffffffffffffffffffffffffffffffffff1916817bffffffffffffffffffffffffffffffffffffffffffffffffffffffff19161461164f57836040517f64a0ae92000000000000000000000000000000000000000000000000000000008152600401611646919061202c565b60405180910390fd5b505b5050505050565b606060405180602001604052806000815250905090565b606061167a82610d0b565b506000611685611658565b905060008151116116a557604051806020016040528060008152506116d0565b806116af84611a2c565b6040516020016116c09291906126fd565b6040516020818303038152906040525b915050919050565b60007f01ffc9a7000000000000000000000000000000000000000000000000000000007bffffffffffffffffffffffffffffffffffffffffffffffffffffffff1916827bffffffffffffffffffffffffffffffffffffffffffffffffffffffff1916149050919050565b60006002600083815260200190815260200160002060009054906101000a900473ffffffffffffffffffffffffffffffffffffffff169050919050565b80806117b85750600073ffffffffffffffffffffffffffffffffffffffff168273ffffffffffffffffffffffffffffffffffffffff1614155b156118ec5760006117c884610d0b565b9050600073ffffffffffffffffffffffffffffffffffffffff168373ffffffffffffffffffffffffffffffffffffffff161415801561183357508273ffffffffffffffffffffffffffffffffffffffff168173ffffffffffffffffffffffffffffffffffffffff1614155b801561184657506118448184610b0f565b155b1561188857826040517fa9fbf51f00000000000000000000000000000000000000000000000000000000815260040161187f919061202c565b60405180910390fd5b81156118ea57838573ffffffffffffffffffffffffffffffffffffffff168273ffffffffffffffffffffffffffffffffffffffff167f8c5be1e5ebec7d5bd14f71427d1e84f3dd0314c0f7b2291e5b200ac8c7c3b92560405160405180910390a45b505b836004600085815260200190815260200160002060006101000a81548173ffffffffffffffffffffffffffffffffffffffff021916908373ffffffffffffffffffffffffffffffffffffffff16021790555050505050565b61194f838383611afa565b611a0357600073ffffffffffffffffffffffffffffffffffffffff168373ffffffffffffffffffffffffffffffffffffffff16036119c457806040517f7e2732890000000000000000000000000000000000000000000000000000000081526004016119bb91906122f0565b60405180910390fd5b81816040517f177e802f0000000000000000000000000000000000000000000000000000000081526004016119fa929190612a82565b60405180910390fd5b505050565b611a128383611bbb565b611a27611a1d610dd0565b60008585856114a7565b505050565b606060006001611a3b84611cb4565b01905060008167ffffffffffffffff811115611a5a57611a59612140565b5b6040519080825280601f01601f191660200182016040528015611a8c5781602001600182028036833780820191505090505b509050600082602083010190505b600115611aef578080600190039150507f3031323334353637383961626364656600000000000000000000000000000000600a86061a8153600a8581611ae357611ae2612aab565b5b04945060008503611a9a575b819350505050919050565b60008073ffffffffffffffffffffffffffffffffffffffff168373ffffffffffffffffffffffffffffffffffffffff1614158015611bb257508273ffffffffffffffffffffffffffffffffffffffff168473ffffffffffffffffffffffffffffffffffffffff161480611b735750611b728484610b0f565b5b80611bb157508273ffffffffffffffffffffffffffffffffffffffff16611b9983610d93565b73ffffffffffffffffffffffffffffffffffffffff16145b5b90509392505050565b600073ffffffffffffffffffffffffffffffffffffffff168273ffffffffffffffffffffffffffffffffffffffff1603611c2d5760006040517f64a0ae92000000000000000000000000000000000000000000000000000000008152600401611c24919061202c565b60405180910390fd5b6000611c3b83836000610dea565b9050600073ffffffffffffffffffffffffffffffffffffffff168173ffffffffffffffffffffffffffffffffffffffff1614611caf5760006040517f73c6ac6e000000000000000000000000000000000000000000000000000000008152600401611ca6919061202c565b60405180910390fd5b505050565b600080600090507a184f03e93ff9f4daa797ed6e38ed64bf6a1f0100000000000000008310611d12577a184f03e93ff9f4daa797ed6e38ed64bf6a1f0100000000000000008381611d0857611d07612aab565b5b0492506040810190505b6d04ee2d6d415b85acef81000000008310611d4f576d04ee2d6d415b85acef81000000008381611d4557611d44612aab565b5b0492506020810190505b662386f26fc100008310611d7e57662386f26fc100008381611d7457611d73612aab565b5b0492506010810190505b6305f5e1008310611da7576305f5e1008381611d9d57611d9c612aab565b5b0492506008810190505b6127108310611dcc576127108381611dc257611dc1612aab565b5b0492506004810190505b60648310611def5760648381611de557611de4612aab565b5b0492506002810190505b600a8310611dfe576001810190505b80915050919050565b6000604051905090565b600080fd5b600080fd5b60007fffffffff0000000000000000000000000000000000000000000000000000000082169050919050565b611e5081611e1b565b8114611e5b57600080fd5b50565b600081359050611e6d81611e47565b92915050565b600060208284031215611e8957611e88611e11565b5b6000611e9784828501611e5e565b91505092915050565b60008115159050919050565b611eb581611ea0565b82525050565b6000602082019050611ed06000830184611eac565b92915050565b600081519050919050565b600082825260208201905092915050565b60005b83811015611f10578082015181840152602081019050611ef5565b60008484015250505050565b6000601f19601f8301169050919050565b6000611f3882611ed6565b611f428185611ee1565b9350611f52818560208601611ef2565b611f5b81611f1c565b840191505092915050565b60006020820190508181036000830152611f808184611f2d565b905092915050565b6000819050919050565b611f9b81611f88565b8114611fa657600080fd5b50565b600081359050611fb881611f92565b92915050565b600060208284031215611fd457611fd3611e11565b5b6000611fe284828501611fa9565b91505092915050565b600073ffffffffffffffffffffffffffffffffffffffff82169050919050565b600061201682611feb565b9050919050565b6120268161200b565b82525050565b6000602082019050612041600083018461201d565b92915050565b6120508161200b565b811461205b57600080fd5b50565b60008135905061206d81612047565b92915050565b6000806040838503121561208a57612089611e11565b5b60006120988582860161205e565b92505060206120a985828601611fa9565b9150509250929050565b6000806000606084860312156120cc576120cb611e11565b5b60006120da8682870161205e565b93505060206120eb8682870161205e565b92505060406120fc86828701611fa9565b9150509250925092565b600060408201905081810360008301526121208185611f2d565b905061212f602083018461201d565b9392505050565b600080fd5b600080fd5b7f4e487b7100000000000000000000000000000000000000000000000000000000600052604160045260246000fd5b61217882611f1c565b810181811067ffffffffffffffff8211171561219757612196612140565b5b80604052505050565b60006121aa611e07565b90506121b6828261216f565b919050565b600067ffffffffffffffff8211156121d6576121d5612140565b5b6121df82611f1c565b9050602081019050919050565b82818337600083830152505050565b600061220e612209846121bb565b6121a0565b90508281526020810184848401111561222a5761222961213b565b5b6122358482856121ec565b509392505050565b600082601f83011261225257612251612136565b5b81356122628482602086016121fb565b91505092915050565b60006020828403121561228157612280611e11565b5b600082013567ffffffffffffffff81111561229f5761229e611e16565b5b6122ab8482850161223d565b91505092915050565b6000602082840312156122ca576122c9611e11565b5b60006122d88482850161205e565b91505092915050565b6122ea81611f88565b82525050565b600060208201905061230560008301846122e1565b92915050565b61231481611ea0565b811461231f57600080fd5b50565b6000813590506123318161230b565b92915050565b6000806040838503121561234e5761234d611e11565b5b600061235c8582860161205e565b925050602061236d85828601612322565b9150509250929050565b600067ffffffffffffffff82111561239257612391612140565b5b61239b82611f1c565b9050602081019050919050565b60006123bb6123b684612377565b6121a0565b9050828152602081018484840111156123d7576123d661213b565b5b6123e28482856121ec565b509392505050565b600082601f8301126123ff576123fe612136565b5b813561240f8482602086016123a8565b91505092915050565b6000806000806080858703121561243257612431611e11565b5b60006124408782880161205e565b94505060206124518782880161205e565b935050604061246287828801611fa9565b925050606085013567ffffffffffffffff81111561248357612482611e16565b5b61248f878288016123ea565b91505092959194509250565b600080604083850312156124b2576124b1611e11565b5b60006124c08582860161205e565b92505060206124d18582860161205e565b9150509250929050565b7f4e487b7100000000000000000000000000000000000000000000000000000000600052602260045260246000fd5b6000600282049050600182168061252257607f821691505b602082108103612535576125346124db565b5b50919050565b6000606082019050612550600083018661201d565b61255d60208301856122e1565b61256a604083018461201d565b949350505050565b7f4e487b7100000000000000000000000000000000000000000000000000000000600052601160045260246000fd5b60006125ac82611f88565b91507fffffffffffffffffffffffffffffffffffffffffffffffffffffffffffffffff82036125de576125dd612572565b5b600182019050919050565b7f4e6f7420746865206f776e657200000000000000000000000000000000000000600082015250565b600061261f600d83611ee1565b915061262a826125e9565b602082019050919050565b6000602082019050818103600083015261264e81612612565b9050919050565b7f496e76616c696420616464726573730000000000000000000000000000000000600082015250565b600061268b600f83611ee1565b915061269682612655565b602082019050919050565b600060208201905081810360008301526126ba8161267e565b9050919050565b600081905092915050565b60006126d782611ed6565b6126e181856126c1565b93506126f1818560208601611ef2565b80840191505092915050565b600061270982856126cc565b915061271582846126cc565b91508190509392505050565b60008190508160005260206000209050919050565b60006020601f8301049050919050565b600082821b905092915050565b6000600883026127837fffffffffffffffffffffffffffffffffffffffffffffffffffffffffffffffff82612746565b61278d8683612746565b95508019841693508086168417925050509392505050565b6000819050919050565b60006127ca6127c56127c084611f88565b6127a5565b611f88565b9050919050565b6000819050919050565b6127e4836127af565b6127f86127f0826127d1565b848454612753565b825550505050565b600090565b61280d612800565b6128188184846127db565b505050565b5b8181101561283c57612831600082612805565b60018101905061281e565b5050565b601f8211156128815761285281612721565b61285b84612736565b8101602085101561286a578190505b61287e61287685612736565b83018261281d565b50505b505050565b600082821c905092915050565b60006128a460001984600802612886565b1980831691505092915050565b60006128bd8383612893565b9150826002028217905092915050565b6128d682611ed6565b67ffffffffffffffff8111156128ef576128ee612140565b5b6128f9825461250a565b612904828285612840565b600060209050601f8311600181146129375760008415612925578287015190505b61292f85826128b1565b865550612997565b601f19841661294586612721565b60005b8281101561296d57848901518255600182019150602085019450602081019050612948565b8683101561298a5784890151612986601f891682612893565b8355505b6001600288020188555050505b505050505050565b600081519050919050565b600082825260208201905092915050565b60006129c68261299f565b6129d081856129aa565b93506129e0818560208601611ef2565b6129e981611f1c565b840191505092915050565b6000608082019050612a09600083018761201d565b612a16602083018661201d565b612a2360408301856122e1565b8181036060830152612a3581846129bb565b905095945050505050565b600081519050612a4f81611e47565b92915050565b600060208284031215612a6b57612a6a611e11565b5b6000612a7984828501612a40565b91505092915050565b6000604082019050612a97600083018561201d565b612aa460208301846122e1565b9392505050565b7f4e487b7100000000000000000000000000000000000000000000000000000000600052601260045260246000fdfea2646970667358221220634d1dfd34536b7b25739387c1df984ecab1c611883677e8cac33e193d3ea82e64736f6c634300081c0033",
  "linkReferences": {},
  "deployedLinkReferences": {}
}