{
  "_format": "hh-sol-artifact-1",
  "contractName": "NFTminter",
  "sourceName": "contracts/NFTminter.sol",
  "abi": [
    {
      "inputs": [],
      "stateMutability": "nonpayable",
      "type": "constructor"
    },
    {
      "inputs": [
        {
          "internalType": "address",
          "name": "sender",
          "type": "address"
        },
        {
          "internalType": "uint256",
          "name": "tokenId",
          "type": "uint256"
        },
        {
          "internalType": "address",
          "name": "owner",
          "type": "address"
        }
      ],
      "name": "ERC721IncorrectOwner",
      "type": "error"
    },
    {
      "inputs": [
        {
          "internalType": "address",
          "name": "operator",
          "type": "address"
        },
        {
          "internalType": "uint256",
          "name": "tokenId",
          "type": "uint256"
        }
      ],
      "name": "ERC721InsufficientApproval",
      "type": "error"
    },
    {
      "inputs": [
        {
          "internalType": "address",
          "name": "approver",
          "type": "address"
        }
      ],
      "name": "ERC721InvalidApprover",
      "type": "error"
    },
    {
      "inputs": [
        {
          "internalType": "address",
          "name": "operator",
          "type": "address"
        }
      ],
      "name": "ERC721InvalidOperator",
      "type": "error"
    },
    {
      "inputs": [
        {
          "internalType": "address",
          "name": "owner",
          "type": "address"
        }
      ],
      "name": "ERC721InvalidOwner",
      "type": "error"
    },
    {
      "inputs": [
        {
          "internalType": "address",
          "name": "receiver",
          "type": "address"
        }
      ],
      "name": "ERC721InvalidReceiver",
      "type": "error"
    },
    {
      "inputs": [
        {
          "internalType": "address",
          "name": "sender",
          "type": "address"
        }
      ],
      "name": "ERC721InvalidSender",
      "type": "error"
    },
    {
      "inputs": [
        {
          "internalType": "uint256",
          "name": "tokenId",
          "type": "uint256"
        }
      ],
      "name": "ERC721NonexistentToken",
      "type": "error"
    },
    {
      "inputs": [
        {
          "internalType": "address",
          "name": "owner",
          "type": "address"
        }
      ],
      "name": "OwnableInvalidOwner",
      "type": "error"
    },
    {
      "inputs": [
        {
          "internalType": "address",
          "name": "account",
          "type": "address"
        }
      ],
      "name": "OwnableUnauthorizedAccount",
      "type": "error"
    },
    {
      "anonymous": false,
      "inputs": [
        {
          "indexed": true,
          "internalType": "address",
          "name": "owner",
          "type": "address"
        },
        {
          "indexed": true,
          "internalType": "address",
          "name": "approved",
          "type": "address"
        },
        {
          "indexed": true,
          "internalType": "uint256",
          "name": "tokenId",
          "type": "uint256"
        }
      ],
      "name": "Approval",
      "type": "event"
    },
    {
      "anonymous": false,
      "inputs": [
        {
          "indexed": true,
          "internalType": "address",
          "name": "owner",
          "type": "address"
        },
        {
          "indexed": true,
          "internalType": "address",
          "name": "operator",
          "type": "address"
        },
        {
          "indexed": false,
          "internalType": "bool",
          "name": "approved",
          "type": "bool"
        }
      ],
      "name": "ApprovalForAll",
      "type": "event"
    },
    {
      "anonymous": false,
      "inputs": [
        {
          "indexed": false,
          "internalType": "uint256",
          "name": "_fromTokenId",
          "type": "uint256"
        },
        {
          "indexed": false,
          "internalType": "uint256",
          "name": "_toTokenId",
          "type": "uint256"
        }
      ],
      "name": "BatchMetadataUpdate",
      "type": "event"
    },
    {
      "anonymous": false,
      "inputs": [
        {
          "indexed": false,
          "internalType": "uint256",
          "name": "_tokenId",
          "type": "uint256"
        }
      ],
      "name": "MetadataUpdate",
      "type": "event"
    },
    {
      "anonymous": false,
      "inputs": [
        {
          "indexed": true,
          "internalType": "address",
          "name": "previousOwner",
          "type": "address"
        },
        {
          "indexed": true,
          "internalType": "address",
          "name": "newOwner",
          "type": "address"
        }
      ],
      "name": "OwnershipTransferred",
      "type": "event"
    },
    {
      "anonymous": false,
      "inputs": [
        {
          "indexed": true,
          "internalType": "address",
          "name": "from",
          "type": "address"
        },
        {
          "indexed": true,
          "internalType": "address",
          "name": "to",
          "type": "address"
        },
        {
          "indexed": true,
          "internalType": "uint256",
          "name": "tokenId",
          "type": "uint256"
        }
      ],
      "name": "Transfer",
      "type": "event"
    },
    {
      "inputs": [
        {
          "internalType": "string",
          "name": "tokenURI",
          "type": "string"
        }
      ],
      "name": "MintNNFT",
      "outputs": [],
      "stateMutability": "nonpayable",
      "type": "function"
    },
    {
      "inputs": [
        {
          "internalType": "address",
          "name": "to",
          "type": "address"
        },
        {
          "internalType": "uint256",
          "name": "tokenId",
          "type": "uint256"
        }
      ],
      "name": "approve",
      "outputs": [],
      "stateMutability": "nonpayable",
      "type": "function"
    },
    {
      "inputs": [
        {
          "internalType": "address",
          "name": "owner",
          "type": "address"
        }
      ],
      "name": "balanceOf",
      "outputs": [
        {
          "internalType": "uint256",
          "name": "",
          "type": "uint256"
        }
      ],
      "stateMutability": "view",
      "type": "function"
    },
    {
      "inputs": [
        {
          "internalType": "uint256",
          "name": "tokenId",
          "type": "uint256"
        }
      ],
      "name": "getApproved",
      "outputs": [
        {
          "internalType": "address",
          "name": "",
          "type": "address"
        }
      ],
      "stateMutability": "view",
      "type": "function"
    },
    {
      "inputs": [
        {
          "internalType": "uint256",
          "name": "tokenID",
          "type": "uint256"
        }
      ],
      "name": "getNFT",
      "outputs": [
        {
          "internalType": "string",
          "name": "",
          "type": "string"
        },
        {
          "internalType": "address",
          "name": "",
          "type": "address"
        }
      ],
      "stateMutability": "view",
      "type": "function"
    },
    {
      "inputs": [],
      "name": "id",
      "outputs": [
        {
          "internalType": "uint256",
          "name": "",
          "type": "uint256"
        }
      ],
      "stateMutability": "view",
      "type": "function"
    },
    {
      "inputs": [
        {
          "internalType": "address",
          "name": "owner",
          "type": "address"
        },
        {
          "internalType": "address",
          "name": "operator",
          "type": "address"
        }
      ],
      "name": "isApprovedForAll",
      "outputs": [
        {
          "internalType": "bool",
          "name": "",
          "type": "bool"
        }
      ],
      "stateMutability": "view",
      "type": "function"
    },
    {
      "inputs": [],
      "name": "name",
      "outputs": [
        {
          "internalType": "string",
          "name": "",
          "type": "string"
        }
      ],
      "stateMutability": "view",
      "type": "function"
    },
    {
      "inputs": [],
      "name": "owner",
      "outputs": [
        {
          "internalType": "address",
          "name": "",
          "type": "address"
        }
      ],
      "stateMutability": "view",
      "type": "function"
    },
    {
      "inputs": [
        {
          "internalType": "uint256",
          "name": "tokenId",
          "type": "uint256"
        }
      ],
      "name": "ownerOf",
      "outputs": [
        {
          "internalType": "address",
          "name": "",
          "type": "address"
        }
      ],
      "stateMutability": "view",
      "type": "function"
    },
    {
      "inputs": [],
      "name": "renounceOwnership",
      "outputs": [],
      "stateMutability": "nonpayable",
      "type": "function"
    },
    {
      "inputs": [
        {
          "internalType": "address",
          "name": "from",
          "type": "address"
        },
        {
          "internalType": "address",
          "name": "to",
          "type": "address"
        },
        {
          "internalType": "uint256",
          "name": "tokenId",
          "type": "uint256"
        }
      ],
      "name": "safeTransferFrom",
      "outputs": [],
      "stateMutability": "nonpayable",
      "type": "function"
    },
    {
      "inputs": [
        {
          "internalType": "address",
          "name": "from",
          "type": "address"
        },
        {
          "internalType": "address",
          "name": "to",
          "type": "address"
        },
        {
          "internalType": "uint256",
          "name": "tokenId",
          "type": "uint256"
        },
        {
          "internalType": "bytes",
          "name": "data",
          "type": "bytes"
        }
      ],
      "name": "safeTransferFrom",
      "outputs": [],
      "stateMutability": "nonpayable",
      "type": "function"
    },
    {
      "inputs": [
        {
          "internalType": "address",
          "name": "operator",
          "type": "address"
        },
        {
          "internalType": "bool",
          "name": "approved",
          "type": "bool"
        }
      ],
      "name": "setApprovalForAll",
      "outputs": [],
      "stateMutability": "nonpayable",
      "type": "function"
    },
    {
      "inputs": [
        {
          "internalType": "bytes4",
          "name": "interfaceId",
          "type": "bytes4"
        }
      ],
      "name": "supportsInterface",
      "outputs": [
        {
          "internalType": "bool",
          "name": "",
          "type": "bool"
        }
      ],
      "stateMutability": "view",
      "type": "function"
    },
    {
      "inputs": [],
      "name": "symbol",
      "outputs": [
        {
          "internalType": "string",
          "name": "",
          "type": "string"
        }
      ],
      "stateMutability": "view",
      "type": "function"
    },
    {
      "inputs": [
        {
          "internalType": "uint256",
          "name": "tokenId",
          "type": "uint256"
        }
      ],
      "name": "tokenURI",
      "outputs": [
        {
          "internalType": "string",
          "name": "",
          "type": "string"
        }
      ],
      "stateMutability": "view",
      "type": "function"
    },
    {
      "inputs": [
        {
          "internalType": "address",
          "name": "from",
          "type": "address"
        },
        {
          "internalType": "address",
          "name": "to",
          "type": "address"
        },
        {
          "internalType": "uint256",
          "name": "tokenId",
          "type": "uint256"
        }
      ],
      "name": "transferFrom",
      "outputs": [],
      "stateMutability": "nonpayable",
      "type": "function"
    },
    {
      "inputs": [
        {
          "internalType": "address",
          "name": "newOwner",
          "type": "address"
        }
      ],
      "name": "transferOwnership",
      "outputs": [],
      "stateMutability": "nonpayable",
      "type": "function"
    }
  ],
  "bytecode": "0x6080604052600060085534801561001557600080fd5b50336040518060400160405280600581526020017f4d794e46540000000000000000000000000000000000000000000000000000008152506040518060400160405280600481526020017f4d4e46540000000000000000000000000000000000000000000000000000000081525081600090816100929190610442565b5080600190816100a29190610442565b505050600073ffffffffffffffffffffffffffffffffffffffff168173ffffffffffffffffffffffffffffffffffffffff16036101175760006040517f1e4fbdf700000000000000000000000000000000000000000000000000000000815260040161010e9190610555565b60405180910390fd5b6101268161012c60201b60201c565b50610570565b6000600760009054906101000a900473ffffffffffffffffffffffffffffffffffffffff16905081600760006101000a81548173ffffffffffffffffffffffffffffffffffffffff021916908373ffffffffffffffffffffffffffffffffffffffff1602179055508173ffffffffffffffffffffffffffffffffffffffff168173ffffffffffffffffffffffffffffffffffffffff167f8be0079c531659141344cd1fd0a4f28419497f9722a3daafe3b4186f6b6457e060405160405180910390a35050565b600081519050919050565b7f4e487b7100000000000000000000000000000000000000000000000000000000600052604160045260246000fd5b7f4e487b7100000000000000000000000000000000000000000000000000000000600052602260045260246000fd5b6000600282049050600182168061027357607f821691505b6020821081036102865761028561022c565b5b50919050565b60008190508160005260206000209050919050565b60006020601f8301049050919050565b600082821b905092915050565b6000600883026102ee7fffffffffffffffffffffffffffffffffffffffffffffffffffffffffffffffff826102b1565b6102f886836102b1565b95508019841693508086168417925050509392505050565b6000819050919050565b6000819050919050565b600061033f61033a61033584610310565b61031a565b610310565b9050919050565b6000819050919050565b61035983610324565b61036d61036582610346565b8484546102be565b825550505050565b600090565b610382610375565b61038d818484610350565b505050565b5b818110156103b1576103a660008261037a565b600181019050610393565b5050565b601f8211156103f6576103c78161028c565b6103d0846102a1565b810160208510156103df578190505b6103f36103eb856102a1565b830182610392565b50505b505050565b600082821c905092915050565b6000610419600019846008026103fb565b1980831691505092915050565b60006104328383610408565b9150826002028217905092915050565b61044b826101f2565b67ffffffffffffffff811115610464576104636101fd565b5b61046e825461025b565b6104798282856103b5565b600060209050601f8311600181146104ac576000841561049a578287015190505b6104a48582610426565b86555061050c565b601f1984166104ba8661028c565b60005b828110156104e2578489015182556001820191506020850194506020810190506104bd565b868310156104ff57848901516104fb601f891682610408565b8355505b6001600288020188555050505b505050505050565b600073ffffffffffffffffffffffffffffffffffffffff82169050919050565b600061053f82610514565b9050919050565b61054f81610534565b82525050565b600060208201905061056a6000830184610546565b92915050565b6127068061057f6000396000f3fe608060405234801561001057600080fd5b50600436106101215760003560e01c806370a08231116100ad578063af640d0f11610071578063af640d0f14610307578063b88d4fde14610325578063c87b56dd14610341578063e985e9c514610371578063f2fde38b146103a157610121565b806370a0823114610275578063715018a6146102a55780638da5cb5b146102af57806395d89b41146102cd578063a22cb465146102eb57610121565b806323b872dd116100f457806323b872dd146101c057806342842e0e146101dc578063576f7ea7146101f85780636352211e146102295780636c038a681461025957610121565b806301ffc9a71461012657806306fdde0314610156578063081812fc14610174578063095ea7b3146101a4575b600080fd5b610140600480360381019061013b9190611b41565b6103bd565b60405161014d9190611b89565b60405180910390f35b61015e61041e565b60405161016b9190611c34565b60405180910390f35b61018e60048036038101906101899190611c8c565b6104b0565b60405161019b9190611cfa565b60405180910390f35b6101be60048036038101906101b99190611d41565b6104cc565b005b6101da60048036038101906101d59190611d81565b6104e2565b005b6101f660048036038101906101f19190611d81565b6105e4565b005b610212600480360381019061020d9190611c8c565b610604565b604051610220929190611dd4565b60405180910390f35b610243600480360381019061023e9190611c8c565b610623565b6040516102509190611cfa565b60405180910390f35b610273600480360381019061026e9190611f39565b610635565b005b61028f600480360381019061028a9190611f82565b61066c565b60405161029c9190611fbe565b60405180910390f35b6102ad610726565b005b6102b761073a565b6040516102c49190611cfa565b60405180910390f35b6102d5610764565b6040516102e29190611c34565b60405180910390f35b61030560048036038101906103009190612005565b6107f6565b005b61030f61080c565b60405161031c9190611fbe565b60405180910390f35b61033f600480360381019061033a91906120e6565b610812565b005b61035b60048036038101906103569190611c8c565b610837565b6040516103689190611c34565b60405180910390f35b61038b60048036038101906103869190612169565b61094a565b6040516103989190611b89565b60405180910390f35b6103bb60048036038101906103b69190611f82565b6109de565b005b6000634906490660e01b7bffffffffffffffffffffffffffffffffffffffffffffffffffffffff1916827bffffffffffffffffffffffffffffffffffffffffffffffffffffffff19161480610417575061041682610a64565b5b9050919050565b60606000805461042d906121d8565b80601f0160208091040260200160405190810160405280929190818152602001828054610459906121d8565b80156104a65780601f1061047b576101008083540402835291602001916104a6565b820191906000526020600020905b81548152906001019060200180831161048957829003601f168201915b5050505050905090565b60006104bb82610b46565b506104c582610bce565b9050919050565b6104de82826104d9610c0b565b610c13565b5050565b600073ffffffffffffffffffffffffffffffffffffffff168273ffffffffffffffffffffffffffffffffffffffff16036105545760006040517f64a0ae9200000000000000000000000000000000000000000000000000000000815260040161054b9190611cfa565b60405180910390fd5b60006105688383610563610c0b565b610c25565b90508373ffffffffffffffffffffffffffffffffffffffff168173ffffffffffffffffffffffffffffffffffffffff16146105de578382826040517f64283d7b0000000000000000000000000000000000000000000000000000000081526004016105d593929190612209565b60405180910390fd5b50505050565b6105ff83838360405180602001604052806000815250610812565b505050565b6060600061061183610837565b61061a84610623565b91509150915091565b600061062e82610b46565b9050919050565b600060085490506106463382610e3f565b6106508183610e5d565b600860008154809291906106639061226f565b91905055505050565b60008073ffffffffffffffffffffffffffffffffffffffff168273ffffffffffffffffffffffffffffffffffffffff16036106df5760006040517f89c62b640000000000000000000000000000000000000000000000000000000081526004016106d69190611cfa565b60405180910390fd5b600360008373ffffffffffffffffffffffffffffffffffffffff1673ffffffffffffffffffffffffffffffffffffffff168152602001908152602001600020549050919050565b61072e610eb9565b6107386000610f40565b565b6000600760009054906101000a900473ffffffffffffffffffffffffffffffffffffffff16905090565b606060018054610773906121d8565b80601f016020809104026020016040519081016040528092919081815260200182805461079f906121d8565b80156107ec5780601f106107c1576101008083540402835291602001916107ec565b820191906000526020600020905b8154815290600101906020018083116107cf57829003601f168201915b5050505050905090565b610808610801610c0b565b8383611006565b5050565b60085481565b61081d8484846104e2565b610831610828610c0b565b85858585611175565b50505050565b606061084282610b46565b506000600660008481526020019081526020016000208054610863906121d8565b80601f016020809104026020016040519081016040528092919081815260200182805461088f906121d8565b80156108dc5780601f106108b1576101008083540402835291602001916108dc565b820191906000526020600020905b8154815290600101906020018083116108bf57829003601f168201915b5050505050905060006108ed611326565b90506000815103610902578192505050610945565b60008251111561093757808260405160200161091f9291906122f3565b60405160208183030381529060405292505050610945565b6109408461133d565b925050505b919050565b6000600560008473ffffffffffffffffffffffffffffffffffffffff1673ffffffffffffffffffffffffffffffffffffffff16815260200190815260200160002060008373ffffffffffffffffffffffffffffffffffffffff1673ffffffffffffffffffffffffffffffffffffffff16815260200190815260200160002060009054906101000a900460ff16905092915050565b6109e6610eb9565b600073ffffffffffffffffffffffffffffffffffffffff168173ffffffffffffffffffffffffffffffffffffffff1603610a585760006040517f1e4fbdf7000000000000000000000000000000000000000000000000000000008152600401610a4f9190611cfa565b60405180910390fd5b610a6181610f40565b50565b60007f80ac58cd000000000000000000000000000000000000000000000000000000007bffffffffffffffffffffffffffffffffffffffffffffffffffffffff1916827bffffffffffffffffffffffffffffffffffffffffffffffffffffffff19161480610b2f57507f5b5e139f000000000000000000000000000000000000000000000000000000007bffffffffffffffffffffffffffffffffffffffffffffffffffffffff1916827bffffffffffffffffffffffffffffffffffffffffffffffffffffffff1916145b80610b3f5750610b3e826113a6565b5b9050919050565b600080610b5283611410565b9050600073ffffffffffffffffffffffffffffffffffffffff168173ffffffffffffffffffffffffffffffffffffffff1603610bc557826040517f7e273289000000000000000000000000000000000000000000000000000000008152600401610bbc9190611fbe565b60405180910390fd5b80915050919050565b60006004600083815260200190815260200160002060009054906101000a900473ffffffffffffffffffffffffffffffffffffffff169050919050565b600033905090565b610c20838383600161144d565b505050565b600080610c3184611410565b9050600073ffffffffffffffffffffffffffffffffffffffff168373ffffffffffffffffffffffffffffffffffffffff1614610c7357610c72818486611612565b5b600073ffffffffffffffffffffffffffffffffffffffff168173ffffffffffffffffffffffffffffffffffffffff1614610d0457610cb560008560008061144d565b6001600360008373ffffffffffffffffffffffffffffffffffffffff1673ffffffffffffffffffffffffffffffffffffffff168152602001908152602001600020600082825403925050819055505b600073ffffffffffffffffffffffffffffffffffffffff168573ffffffffffffffffffffffffffffffffffffffff1614610d87576001600360008773ffffffffffffffffffffffffffffffffffffffff1673ffffffffffffffffffffffffffffffffffffffff168152602001908152602001600020600082825401925050819055505b846002600086815260200190815260200160002060006101000a81548173ffffffffffffffffffffffffffffffffffffffff021916908373ffffffffffffffffffffffffffffffffffffffff160217905550838573ffffffffffffffffffffffffffffffffffffffff168273ffffffffffffffffffffffffffffffffffffffff167fddf252ad1be2c89b69c2b068fc378daa952ba7f163c4a11628f55a4df523b3ef60405160405180910390a4809150509392505050565b610e598282604051806020016040528060008152506116d6565b5050565b80600660008481526020019081526020016000209081610e7d91906124c3565b507ff8e1a15aba9398e019f0b49df1a4fde98ee17ae345cb5f6b5e2c27f5033e8ce782604051610ead9190611fbe565b60405180910390a15050565b610ec1610c0b565b73ffffffffffffffffffffffffffffffffffffffff16610edf61073a565b73ffffffffffffffffffffffffffffffffffffffff1614610f3e57610f02610c0b565b6040517f118cdaa7000000000000000000000000000000000000000000000000000000008152600401610f359190611cfa565b60405180910390fd5b565b6000600760009054906101000a900473ffffffffffffffffffffffffffffffffffffffff16905081600760006101000a81548173ffffffffffffffffffffffffffffffffffffffff021916908373ffffffffffffffffffffffffffffffffffffffff1602179055508173ffffffffffffffffffffffffffffffffffffffff168173ffffffffffffffffffffffffffffffffffffffff167f8be0079c531659141344cd1fd0a4f28419497f9722a3daafe3b4186f6b6457e060405160405180910390a35050565b600073ffffffffffffffffffffffffffffffffffffffff168273ffffffffffffffffffffffffffffffffffffffff160361107757816040517f5b08ba1800000000000000000000000000000000000000000000000000000000815260040161106e9190611cfa565b60405180910390fd5b80600560008573ffffffffffffffffffffffffffffffffffffffff1673ffffffffffffffffffffffffffffffffffffffff16815260200190815260200160002060008473ffffffffffffffffffffffffffffffffffffffff1673ffffffffffffffffffffffffffffffffffffffff16815260200190815260200160002060006101000a81548160ff0219169083151502179055508173ffffffffffffffffffffffffffffffffffffffff168373ffffffffffffffffffffffffffffffffffffffff167f17307eab39ab6107e8899845ad3d59bd9653f200f220920489ca2b5937696c31836040516111689190611b89565b60405180910390a3505050565b60008373ffffffffffffffffffffffffffffffffffffffff163b111561131f578273ffffffffffffffffffffffffffffffffffffffff1663150b7a02868685856040518563ffffffff1660e01b81526004016111d494939291906125ea565b6020604051808303816000875af192505050801561121057506040513d601f19601f8201168201806040525081019061120d919061264b565b60015b611294573d8060008114611240576040519150601f19603f3d011682016040523d82523d6000602084013e611245565b606091505b50600081510361128c57836040517f64a0ae920000000000000000000000000000000000000000000000000000000081526004016112839190611cfa565b60405180910390fd5b805160208201fd5b63150b7a0260e01b7bffffffffffffffffffffffffffffffffffffffffffffffffffffffff1916817bffffffffffffffffffffffffffffffffffffffffffffffffffffffff19161461131d57836040517f64a0ae920000000000000000000000000000000000000000000000000000000081526004016113149190611cfa565b60405180910390fd5b505b5050505050565b606060405180602001604052806000815250905090565b606061134882610b46565b506000611353611326565b90506000815111611373576040518060200160405280600081525061139e565b8061137d846116fa565b60405160200161138e9291906122f3565b6040516020818303038152906040525b915050919050565b60007f01ffc9a7000000000000000000000000000000000000000000000000000000007bffffffffffffffffffffffffffffffffffffffffffffffffffffffff1916827bffffffffffffffffffffffffffffffffffffffffffffffffffffffff1916149050919050565b60006002600083815260200190815260200160002060009054906101000a900473ffffffffffffffffffffffffffffffffffffffff169050919050565b80806114865750600073ffffffffffffffffffffffffffffffffffffffff168273ffffffffffffffffffffffffffffffffffffffff1614155b156115ba57600061149684610b46565b9050600073ffffffffffffffffffffffffffffffffffffffff168373ffffffffffffffffffffffffffffffffffffffff161415801561150157508273ffffffffffffffffffffffffffffffffffffffff168173ffffffffffffffffffffffffffffffffffffffff1614155b80156115145750611512818461094a565b155b1561155657826040517fa9fbf51f00000000000000000000000000000000000000000000000000000000815260040161154d9190611cfa565b60405180910390fd5b81156115b857838573ffffffffffffffffffffffffffffffffffffffff168273ffffffffffffffffffffffffffffffffffffffff167f8c5be1e5ebec7d5bd14f71427d1e84f3dd0314c0f7b2291e5b200ac8c7c3b92560405160405180910390a45b505b836004600085815260200190815260200160002060006101000a81548173ffffffffffffffffffffffffffffffffffffffff021916908373ffffffffffffffffffffffffffffffffffffffff16021790555050505050565b61161d8383836117c8565b6116d157600073ffffffffffffffffffffffffffffffffffffffff168373ffffffffffffffffffffffffffffffffffffffff160361169257806040517f7e2732890000000000000000000000000000000000000000000000000000000081526004016116899190611fbe565b60405180910390fd5b81816040517f177e802f0000000000000000000000000000000000000000000000000000000081526004016116c8929190612678565b60405180910390fd5b505050565b6116e08383611889565b6116f56116eb610c0b565b6000858585611175565b505050565b60606000600161170984611982565b01905060008167ffffffffffffffff81111561172857611727611e0e565b5b6040519080825280601f01601f19166020018201604052801561175a5781602001600182028036833780820191505090505b509050600082602083010190505b6001156117bd578080600190039150507f3031323334353637383961626364656600000000000000000000000000000000600a86061a8153600a85816117b1576117b06126a1565b5b04945060008503611768575b819350505050919050565b60008073ffffffffffffffffffffffffffffffffffffffff168373ffffffffffffffffffffffffffffffffffffffff161415801561188057508273ffffffffffffffffffffffffffffffffffffffff168473ffffffffffffffffffffffffffffffffffffffff1614806118415750611840848461094a565b5b8061187f57508273ffffffffffffffffffffffffffffffffffffffff1661186783610bce565b73ffffffffffffffffffffffffffffffffffffffff16145b5b90509392505050565b600073ffffffffffffffffffffffffffffffffffffffff168273ffffffffffffffffffffffffffffffffffffffff16036118fb5760006040517f64a0ae920000000000000000000000000000000000000000000000000000000081526004016118f29190611cfa565b60405180910390fd5b600061190983836000610c25565b9050600073ffffffffffffffffffffffffffffffffffffffff168173ffffffffffffffffffffffffffffffffffffffff161461197d5760006040517f73c6ac6e0000000000000000000000000000000000000000000000000000000081526004016119749190611cfa565b60405180910390fd5b505050565b600080600090507a184f03e93ff9f4daa797ed6e38ed64bf6a1f01000000000000000083106119e0577a184f03e93ff9f4daa797ed6e38ed64bf6a1f01000000000000000083816119d6576119d56126a1565b5b0492506040810190505b6d04ee2d6d415b85acef81000000008310611a1d576d04ee2d6d415b85acef81000000008381611a1357611a126126a1565b5b0492506020810190505b662386f26fc100008310611a4c57662386f26fc100008381611a4257611a416126a1565b5b0492506010810190505b6305f5e1008310611a75576305f5e1008381611a6b57611a6a6126a1565b5b0492506008810190505b6127108310611a9a576127108381611a9057611a8f6126a1565b5b0492506004810190505b60648310611abd5760648381611ab357611ab26126a1565b5b0492506002810190505b600a8310611acc576001810190505b80915050919050565b6000604051905090565b600080fd5b600080fd5b60007fffffffff0000000000000000000000000000000000000000000000000000000082169050919050565b611b1e81611ae9565b8114611b2957600080fd5b50565b600081359050611b3b81611b15565b92915050565b600060208284031215611b5757611b56611adf565b5b6000611b6584828501611b2c565b91505092915050565b60008115159050919050565b611b8381611b6e565b82525050565b6000602082019050611b9e6000830184611b7a565b92915050565b600081519050919050565b600082825260208201905092915050565b60005b83811015611bde578082015181840152602081019050611bc3565b60008484015250505050565b6000601f19601f8301169050919050565b6000611c0682611ba4565b611c108185611baf565b9350611c20818560208601611bc0565b611c2981611bea565b840191505092915050565b60006020820190508181036000830152611c4e8184611bfb565b905092915050565b6000819050919050565b611c6981611c56565b8114611c7457600080fd5b50565b600081359050611c8681611c60565b92915050565b600060208284031215611ca257611ca1611adf565b5b6000611cb084828501611c77565b91505092915050565b600073ffffffffffffffffffffffffffffffffffffffff82169050919050565b6000611ce482611cb9565b9050919050565b611cf481611cd9565b82525050565b6000602082019050611d0f6000830184611ceb565b92915050565b611d1e81611cd9565b8114611d2957600080fd5b50565b600081359050611d3b81611d15565b92915050565b60008060408385031215611d5857611d57611adf565b5b6000611d6685828601611d2c565b9250506020611d7785828601611c77565b9150509250929050565b600080600060608486031215611d9a57611d99611adf565b5b6000611da886828701611d2c565b9350506020611db986828701611d2c565b9250506040611dca86828701611c77565b9150509250925092565b60006040820190508181036000830152611dee8185611bfb565b9050611dfd6020830184611ceb565b9392505050565b600080fd5b600080fd5b7f4e487b7100000000000000000000000000000000000000000000000000000000600052604160045260246000fd5b611e4682611bea565b810181811067ffffffffffffffff82111715611e6557611e64611e0e565b5b80604052505050565b6000611e78611ad5565b9050611e848282611e3d565b919050565b600067ffffffffffffffff821115611ea457611ea3611e0e565b5b611ead82611bea565b9050602081019050919050565b82818337600083830152505050565b6000611edc611ed784611e89565b611e6e565b905082815260208101848484011115611ef857611ef7611e09565b5b611f03848285611eba565b509392505050565b600082601f830112611f2057611f1f611e04565b5b8135611f30848260208601611ec9565b91505092915050565b600060208284031215611f4f57611f4e611adf565b5b600082013567ffffffffffffffff811115611f6d57611f6c611ae4565b5b611f7984828501611f0b565b91505092915050565b600060208284031215611f9857611f97611adf565b5b6000611fa684828501611d2c565b91505092915050565b611fb881611c56565b82525050565b6000602082019050611fd36000830184611faf565b92915050565b611fe281611b6e565b8114611fed57600080fd5b50565b600081359050611fff81611fd9565b92915050565b6000806040838503121561201c5761201b611adf565b5b600061202a85828601611d2c565b925050602061203b85828601611ff0565b9150509250929050565b600067ffffffffffffffff8211156120605761205f611e0e565b5b61206982611bea565b9050602081019050919050565b600061208961208484612045565b611e6e565b9050828152602081018484840111156120a5576120a4611e09565b5b6120b0848285611eba565b509392505050565b600082601f8301126120cd576120cc611e04565b5b81356120dd848260208601612076565b91505092915050565b60008060008060808587031215612100576120ff611adf565b5b600061210e87828801611d2c565b945050602061211f87828801611d2c565b935050604061213087828801611c77565b925050606085013567ffffffffffffffff81111561215157612150611ae4565b5b61215d878288016120b8565b91505092959194509250565b600080604083850312156121805761217f611adf565b5b600061218e85828601611d2c565b925050602061219f85828601611d2c565b9150509250929050565b7f4e487b7100000000000000000000000000000000000000000000000000000000600052602260045260246000fd5b600060028204905060018216806121f057607f821691505b602082108103612203576122026121a9565b5b50919050565b600060608201905061221e6000830186611ceb565b61222b6020830185611faf565b6122386040830184611ceb565b949350505050565b7f4e487b7100000000000000000000000000000000000000000000000000000000600052601160045260246000fd5b600061227a82611c56565b91507fffffffffffffffffffffffffffffffffffffffffffffffffffffffffffffffff82036122ac576122ab612240565b5b600182019050919050565b600081905092915050565b60006122cd82611ba4565b6122d781856122b7565b93506122e7818560208601611bc0565b80840191505092915050565b60006122ff82856122c2565b915061230b82846122c2565b91508190509392505050565b60008190508160005260206000209050919050565b60006020601f8301049050919050565b600082821b905092915050565b6000600883026123797fffffffffffffffffffffffffffffffffffffffffffffffffffffffffffffffff8261233c565b612383868361233c565b95508019841693508086168417925050509392505050565b6000819050919050565b60006123c06123bb6123b684611c56565b61239b565b611c56565b9050919050565b6000819050919050565b6123da836123a5565b6123ee6123e6826123c7565b848454612349565b825550505050565b600090565b6124036123f6565b61240e8184846123d1565b505050565b5b81811015612432576124276000826123fb565b600181019050612414565b5050565b601f8211156124775761244881612317565b6124518461232c565b81016020851015612460578190505b61247461246c8561232c565b830182612413565b50505b505050565b600082821c905092915050565b600061249a6000198460080261247c565b1980831691505092915050565b60006124b38383612489565b9150826002028217905092915050565b6124cc82611ba4565b67ffffffffffffffff8111156124e5576124e4611e0e565b5b6124ef82546121d8565b6124fa828285612436565b600060209050601f83116001811461252d576000841561251b578287015190505b61252585826124a7565b86555061258d565b601f19841661253b86612317565b60005b828110156125635784890151825560018201915060208501945060208101905061253e565b86831015612580578489015161257c601f891682612489565b8355505b6001600288020188555050505b505050505050565b600081519050919050565b600082825260208201905092915050565b60006125bc82612595565b6125c681856125a0565b93506125d6818560208601611bc0565b6125df81611bea565b840191505092915050565b60006080820190506125ff6000830187611ceb565b61260c6020830186611ceb565b6126196040830185611faf565b818103606083015261262b81846125b1565b905095945050505050565b60008151905061264581611b15565b92915050565b60006020828403121561266157612660611adf565b5b600061266f84828501612636565b91505092915050565b600060408201905061268d6000830185611ceb565b61269a6020830184611faf565b9392505050565b7f4e487b7100000000000000000000000000000000000000000000000000000000600052601260045260246000fdfea264697066735822122055a2f70172dd1252512813a08a15dc532632696d77ba71a26835aa74563156a664736f6c634300081c0033",
  "linkReferences": {},
  "deployedLinkReferences": {}
}