{
  "_format": "hh-sol-artifact-1",
  "contractName": "NFTminter",
  "sourceName": "contracts/NFTminter.sol",
  "abi": [
    {
      "inputs": [],
      "stateMutability": "nonpayable",
      "type": "constructor"
    },
    {
      "inputs": [
        {
          "internalType": "address",
          "name": "sender",
          "type": "address"
        },
        {
          "internalType": "uint256",
          "name": "tokenId",
          "type": "uint256"
        },
        {
          "internalType": "address",
          "name": "owner",
          "type": "address"
        }
      ],
      "name": "ERC721IncorrectOwner",
      "type": "error"
    },
    {
      "inputs": [
        {
          "internalType": "address",
          "name": "operator",
          "type": "address"
        },
        {
          "internalType": "uint256",
          "name": "tokenId",
          "type": "uint256"
        }
      ],
      "name": "ERC721InsufficientApproval",
      "type": "error"
    },
    {
      "inputs": [
        {
          "internalType": "address",
          "name": "approver",
          "type": "address"
        }
      ],
      "name": "ERC721InvalidApprover",
      "type": "error"
    },
    {
      "inputs": [
        {
          "internalType": "address",
          "name": "operator",
          "type": "address"
        }
      ],
      "name": "ERC721InvalidOperator",
      "type": "error"
    },
    {
      "inputs": [
        {
          "internalType": "address",
          "name": "owner",
          "type": "address"
        }
      ],
      "name": "ERC721InvalidOwner",
      "type": "error"
    },
    {
      "inputs": [
        {
          "internalType": "address",
          "name": "receiver",
          "type": "address"
        }
      ],
      "name": "ERC721InvalidReceiver",
      "type": "error"
    },
    {
      "inputs": [
        {
          "internalType": "address",
          "name": "sender",
          "type": "address"
        }
      ],
      "name": "ERC721InvalidSender",
      "type": "error"
    },
    {
      "inputs": [
        {
          "internalType": "uint256",
          "name": "tokenId",
          "type": "uint256"
        }
      ],
      "name": "ERC721NonexistentToken",
      "type": "error"
    },
    {
      "inputs": [
        {
          "internalType": "address",
          "name": "owner",
          "type": "address"
        }
      ],
      "name": "OwnableInvalidOwner",
      "type": "error"
    },
    {
      "inputs": [
        {
          "internalType": "address",
          "name": "account",
          "type": "address"
        }
      ],
      "name": "OwnableUnauthorizedAccount",
      "type": "error"
    },
    {
      "anonymous": false,
      "inputs": [
        {
          "indexed": true,
          "internalType": "address",
          "name": "owner",
          "type": "address"
        },
        {
          "indexed": true,
          "internalType": "address",
          "name": "approved",
          "type": "address"
        },
        {
          "indexed": true,
          "internalType": "uint256",
          "name": "tokenId",
          "type": "uint256"
        }
      ],
      "name": "Approval",
      "type": "event"
    },
    {
      "anonymous": false,
      "inputs": [
        {
          "indexed": true,
          "internalType": "address",
          "name": "owner",
          "type": "address"
        },
        {
          "indexed": true,
          "internalType": "address",
          "name": "operator",
          "type": "address"
        },
        {
          "indexed": false,
          "internalType": "bool",
          "name": "approved",
          "type": "bool"
        }
      ],
      "name": "ApprovalForAll",
      "type": "event"
    },
    {
      "anonymous": false,
      "inputs": [
        {
          "indexed": false,
          "internalType": "uint256",
          "name": "_fromTokenId",
          "type": "uint256"
        },
        {
          "indexed": false,
          "internalType": "uint256",
          "name": "_toTokenId",
          "type": "uint256"
        }
      ],
      "name": "BatchMetadataUpdate",
      "type": "event"
    },
    {
      "anonymous": false,
      "inputs": [
        {
          "indexed": false,
          "internalType": "uint256",
          "name": "_tokenId",
          "type": "uint256"
        }
      ],
      "name": "MetadataUpdate",
      "type": "event"
    },
    {
      "anonymous": false,
      "inputs": [
        {
          "indexed": true,
          "internalType": "uint256",
          "name": "tokenId",
          "type": "uint256"
        },
        {
          "indexed": true,
          "internalType": "address",
          "name": "owner",
          "type": "address"
        },
        {
          "indexed": false,
          "internalType": "string",
          "name": "tokenURI",
          "type": "string"
        }
      ],
      "name": "NFTMinted",
      "type": "event"
    },
    {
      "anonymous": false,
      "inputs": [
        {
          "indexed": true,
          "internalType": "uint256",
          "name": "tokenId",
          "type": "uint256"
        },
        {
          "indexed": true,
          "internalType": "address",
          "name": "from",
          "type": "address"
        },
        {
          "indexed": true,
          "internalType": "address",
          "name": "to",
          "type": "address"
        }
      ],
      "name": "NFTTransferred",
      "type": "event"
    },
    {
      "anonymous": false,
      "inputs": [
        {
          "indexed": true,
          "internalType": "address",
          "name": "previousOwner",
          "type": "address"
        },
        {
          "indexed": true,
          "internalType": "address",
          "name": "newOwner",
          "type": "address"
        }
      ],
      "name": "OwnershipTransferred",
      "type": "event"
    },
    {
      "anonymous": false,
      "inputs": [
        {
          "indexed": true,
          "internalType": "address",
          "name": "from",
          "type": "address"
        },
        {
          "indexed": true,
          "internalType": "address",
          "name": "to",
          "type": "address"
        },
        {
          "indexed": true,
          "internalType": "uint256",
          "name": "tokenId",
          "type": "uint256"
        }
      ],
      "name": "Transfer",
      "type": "event"
    },
    {
      "anonymous": false,
      "inputs": [
        {
          "indexed": true,
          "internalType": "uint256",
          "name": "tokenId",
          "type": "uint256"
        },
        {
          "indexed": true,
          "internalType": "address",
          "name": "owner",
          "type": "address"
        },
        {
          "indexed": false,
          "internalType": "string",
          "name": "tokenURI",
          "type": "string"
        }
      ],
      "name": "ticketNFtMinted",
      "type": "event"
    },
    {
      "inputs": [
        {
          "internalType": "string",
          "name": "tokenURI",
          "type": "string"
        }
      ],
      "name": "MintNNFT",
      "outputs": [],
      "stateMutability": "nonpayable",
      "type": "function"
    },
    {
      "inputs": [
        {
          "internalType": "address",
          "name": "to",
          "type": "address"
        },
        {
          "internalType": "uint256",
          "name": "tokenId",
          "type": "uint256"
        }
      ],
      "name": "approve",
      "outputs": [],
      "stateMutability": "nonpayable",
      "type": "function"
    },
    {
      "inputs": [
        {
          "internalType": "address",
          "name": "owner",
          "type": "address"
        }
      ],
      "name": "balanceOf",
      "outputs": [
        {
          "internalType": "uint256",
          "name": "",
          "type": "uint256"
        }
      ],
      "stateMutability": "view",
      "type": "function"
    },
    {
      "inputs": [
        {
          "internalType": "uint256",
          "name": "tokenId",
          "type": "uint256"
        }
      ],
      "name": "getApproved",
      "outputs": [
        {
          "internalType": "address",
          "name": "",
          "type": "address"
        }
      ],
      "stateMutability": "view",
      "type": "function"
    },
    {
      "inputs": [
        {
          "internalType": "uint256",
          "name": "tokenID",
          "type": "uint256"
        }
      ],
      "name": "getNFT",
      "outputs": [
        {
          "internalType": "string",
          "name": "",
          "type": "string"
        },
        {
          "internalType": "address",
          "name": "",
          "type": "address"
        }
      ],
      "stateMutability": "view",
      "type": "function"
    },
    {
      "inputs": [
        {
          "internalType": "uint256",
          "name": "tokenID",
          "type": "uint256"
        }
      ],
      "name": "getticketNFT",
      "outputs": [
        {
          "internalType": "string",
          "name": "",
          "type": "string"
        },
        {
          "internalType": "address",
          "name": "",
          "type": "address"
        }
      ],
      "stateMutability": "view",
      "type": "function"
    },
    {
      "inputs": [],
      "name": "id",
      "outputs": [
        {
          "internalType": "uint256",
          "name": "",
          "type": "uint256"
        }
      ],
      "stateMutability": "view",
      "type": "function"
    },
    {
      "inputs": [
        {
          "internalType": "address",
          "name": "owner",
          "type": "address"
        },
        {
          "internalType": "address",
          "name": "operator",
          "type": "address"
        }
      ],
      "name": "isApprovedForAll",
      "outputs": [
        {
          "internalType": "bool",
          "name": "",
          "type": "bool"
        }
      ],
      "stateMutability": "view",
      "type": "function"
    },
    {
      "inputs": [],
      "name": "mintid",
      "outputs": [
        {
          "internalType": "uint256",
          "name": "",
          "type": "uint256"
        }
      ],
      "stateMutability": "view",
      "type": "function"
    },
    {
      "inputs": [
        {
          "internalType": "string",
          "name": "tokenURI",
          "type": "string"
        }
      ],
      "name": "mintticket",
      "outputs": [],
      "stateMutability": "nonpayable",
      "type": "function"
    },
    {
      "inputs": [],
      "name": "name",
      "outputs": [
        {
          "internalType": "string",
          "name": "",
          "type": "string"
        }
      ],
      "stateMutability": "view",
      "type": "function"
    },
    {
      "inputs": [],
      "name": "owner",
      "outputs": [
        {
          "internalType": "address",
          "name": "",
          "type": "address"
        }
      ],
      "stateMutability": "view",
      "type": "function"
    },
    {
      "inputs": [
        {
          "internalType": "uint256",
          "name": "tokenId",
          "type": "uint256"
        }
      ],
      "name": "ownerOf",
      "outputs": [
        {
          "internalType": "address",
          "name": "",
          "type": "address"
        }
      ],
      "stateMutability": "view",
      "type": "function"
    },
    {
      "inputs": [],
      "name": "renounceOwnership",
      "outputs": [],
      "stateMutability": "nonpayable",
      "type": "function"
    },
    {
      "inputs": [
        {
          "internalType": "address",
          "name": "from",
          "type": "address"
        },
        {
          "internalType": "address",
          "name": "to",
          "type": "address"
        },
        {
          "internalType": "uint256",
          "name": "tokenId",
          "type": "uint256"
        }
      ],
      "name": "safeTransferFrom",
      "outputs": [],
      "stateMutability": "nonpayable",
      "type": "function"
    },
    {
      "inputs": [
        {
          "internalType": "address",
          "name": "from",
          "type": "address"
        },
        {
          "internalType": "address",
          "name": "to",
          "type": "address"
        },
        {
          "internalType": "uint256",
          "name": "tokenId",
          "type": "uint256"
        },
        {
          "internalType": "bytes",
          "name": "data",
          "type": "bytes"
        }
      ],
      "name": "safeTransferFrom",
      "outputs": [],
      "stateMutability": "nonpayable",
      "type": "function"
    },
    {
      "inputs": [
        {
          "internalType": "address",
          "name": "operator",
          "type": "address"
        },
        {
          "internalType": "bool",
          "name": "approved",
          "type": "bool"
        }
      ],
      "name": "setApprovalForAll",
      "outputs": [],
      "stateMutability": "nonpayable",
      "type": "function"
    },
    {
      "inputs": [
        {
          "internalType": "bytes4",
          "name": "interfaceId",
          "type": "bytes4"
        }
      ],
      "name": "supportsInterface",
      "outputs": [
        {
          "internalType": "bool",
          "name": "",
          "type": "bool"
        }
      ],
      "stateMutability": "view",
      "type": "function"
    },
    {
      "inputs": [],
      "name": "symbol",
      "outputs": [
        {
          "internalType": "string",
          "name": "",
          "type": "string"
        }
      ],
      "stateMutability": "view",
      "type": "function"
    },
    {
      "inputs": [],
      "name": "ticketid",
      "outputs": [
        {
          "internalType": "uint256",
          "name": "",
          "type": "uint256"
        }
      ],
      "stateMutability": "view",
      "type": "function"
    },
    {
      "inputs": [
        {
          "internalType": "uint256",
          "name": "tokenId",
          "type": "uint256"
        }
      ],
      "name": "tokenURI",
      "outputs": [
        {
          "internalType": "string",
          "name": "",
          "type": "string"
        }
      ],
      "stateMutability": "view",
      "type": "function"
    },
    {
      "inputs": [
        {
          "internalType": "uint256",
          "name": "Maxticket",
          "type": "uint256"
        },
        {
          "internalType": "string",
          "name": "tokenURI",
          "type": "string"
        }
      ],
      "name": "totalmint",
      "outputs": [
        {
          "internalType": "uint256",
          "name": "",
          "type": "uint256"
        }
      ],
      "stateMutability": "nonpayable",
      "type": "function"
    },
    {
      "inputs": [
        {
          "internalType": "address",
          "name": "from",
          "type": "address"
        },
        {
          "internalType": "address",
          "name": "to",
          "type": "address"
        },
        {
          "internalType": "uint256",
          "name": "tokenId",
          "type": "uint256"
        }
      ],
      "name": "transferFrom",
      "outputs": [],
      "stateMutability": "nonpayable",
      "type": "function"
    },
    {
      "inputs": [
        {
          "internalType": "address",
          "name": "to",
          "type": "address"
        },
        {
          "internalType": "uint256",
          "name": "tokenId",
          "type": "uint256"
        }
      ],
      "name": "transferNFT",
      "outputs": [],
      "stateMutability": "nonpayable",
      "type": "function"
    },
    {
      "inputs": [
        {
          "internalType": "address",
          "name": "newOwner",
          "type": "address"
        }
      ],
      "name": "transferOwnership",
      "outputs": [],
      "stateMutability": "nonpayable",
      "type": "function"
    }
  ],
  "bytecode": "0x6080604052600060085560006009556000600a5534801561001f57600080fd5b50336040518060400160405280600581526020017f4d794e46540000000000000000000000000000000000000000000000000000008152506040518060400160405280600481526020017f4d4e465400000000000000000000000000000000000000000000000000000000815250816000908161009c919061044c565b5080600190816100ac919061044c565b505050600073ffffffffffffffffffffffffffffffffffffffff168173ffffffffffffffffffffffffffffffffffffffff16036101215760006040517f1e4fbdf7000000000000000000000000000000000000000000000000000000008152600401610118919061055f565b60405180910390fd5b6101308161013660201b60201c565b5061057a565b6000600760009054906101000a900473ffffffffffffffffffffffffffffffffffffffff16905081600760006101000a81548173ffffffffffffffffffffffffffffffffffffffff021916908373ffffffffffffffffffffffffffffffffffffffff1602179055508173ffffffffffffffffffffffffffffffffffffffff168173ffffffffffffffffffffffffffffffffffffffff167f8be0079c531659141344cd1fd0a4f28419497f9722a3daafe3b4186f6b6457e060405160405180910390a35050565b600081519050919050565b7f4e487b7100000000000000000000000000000000000000000000000000000000600052604160045260246000fd5b7f4e487b7100000000000000000000000000000000000000000000000000000000600052602260045260246000fd5b6000600282049050600182168061027d57607f821691505b6020821081036102905761028f610236565b5b50919050565b60008190508160005260206000209050919050565b60006020601f8301049050919050565b600082821b905092915050565b6000600883026102f87fffffffffffffffffffffffffffffffffffffffffffffffffffffffffffffffff826102bb565b61030286836102bb565b95508019841693508086168417925050509392505050565b6000819050919050565b6000819050919050565b600061034961034461033f8461031a565b610324565b61031a565b9050919050565b6000819050919050565b6103638361032e565b61037761036f82610350565b8484546102c8565b825550505050565b600090565b61038c61037f565b61039781848461035a565b505050565b5b818110156103bb576103b0600082610384565b60018101905061039d565b5050565b601f821115610400576103d181610296565b6103da846102ab565b810160208510156103e9578190505b6103fd6103f5856102ab565b83018261039c565b50505b505050565b600082821c905092915050565b600061042360001984600802610405565b1980831691505092915050565b600061043c8383610412565b9150826002028217905092915050565b610455826101fc565b67ffffffffffffffff81111561046e5761046d610207565b5b6104788254610265565b6104838282856103bf565b600060209050601f8311600181146104b657600084156104a4578287015190505b6104ae8582610430565b865550610516565b601f1984166104c486610296565b60005b828110156104ec578489015182556001820191506020850194506020810190506104c7565b868310156105095784890151610505601f891682610412565b8355505b6001600288020188555050505b505050505050565b600073ffffffffffffffffffffffffffffffffffffffff82169050919050565b60006105498261051e565b9050919050565b6105598161053e565b82525050565b60006020820190506105746000830184610550565b92915050565b612e88806105896000396000f3fe608060405234801561001057600080fd5b50600436106101735760003560e01c806370a08231116100de578063af640d0f11610097578063c87b56dd11610071578063c87b56dd14610438578063ccc1491f14610468578063e985e9c514610498578063f2fde38b146104c857610173565b8063af640d0f146103e2578063b38bcc8114610400578063b88d4fde1461041c57610173565b806370a0823114610334578063715018a6146103645780638da5cb5b1461036e57806394ab67fe1461038c57806395d89b41146103a8578063a22cb465146103c657610173565b806342842e0e1161013057806342842e0e1461025f578063576f7ea71461027b5780635d38dc9e146102ac5780636352211e146102ca5780636648c51a146102fa5780636c038a681461031857610173565b806301ffc9a71461017857806306fdde03146101a8578063081812fc146101c6578063095ea7b3146101f657806323b872dd146102125780633236e5a61461022e575b600080fd5b610192600480360381019061018d91906120c9565b6104e4565b60405161019f9190612111565b60405180910390f35b6101b0610545565b6040516101bd91906121bc565b60405180910390f35b6101e060048036038101906101db9190612214565b6105d7565b6040516101ed9190612282565b60405180910390f35b610210600480360381019061020b91906122c9565b6105f3565b005b61022c60048036038101906102279190612309565b610609565b005b61024860048036038101906102439190612214565b61070b565b60405161025692919061235c565b60405180910390f35b61027960048036038101906102749190612309565b61072a565b005b61029560048036038101906102909190612214565b61074a565b6040516102a392919061235c565b60405180910390f35b6102b4610769565b6040516102c1919061239b565b60405180910390f35b6102e460048036038101906102df9190612214565b61076f565b6040516102f19190612282565b60405180910390f35b610302610781565b60405161030f919061239b565b60405180910390f35b610332600480360381019061032d91906124eb565b610787565b005b61034e60048036038101906103499190612534565b61080d565b60405161035b919061239b565b60405180910390f35b61036c6108c7565b005b6103766108db565b6040516103839190612282565b60405180910390f35b6103a660048036038101906103a191906122c9565b610905565b005b6103b0610a54565b6040516103bd91906121bc565b60405180910390f35b6103e060048036038101906103db919061258d565b610ae6565b005b6103ea610afc565b6040516103f7919061239b565b60405180910390f35b61041a600480360381019061041591906124eb565b610b02565b005b6104366004803603810190610431919061266e565b610b95565b005b610452600480360381019061044d9190612214565b610bba565b60405161045f91906121bc565b60405180910390f35b610482600480360381019061047d91906126f1565b610ccd565b60405161048f919061239b565b60405180910390f35b6104b260048036038101906104ad919061274d565b610d65565b6040516104bf9190612111565b60405180910390f35b6104e260048036038101906104dd9190612534565b610df9565b005b6000634906490660e01b7bffffffffffffffffffffffffffffffffffffffffffffffffffffffff1916827bffffffffffffffffffffffffffffffffffffffffffffffffffffffff1916148061053e575061053d82610e7f565b5b9050919050565b606060008054610554906127bc565b80601f0160208091040260200160405190810160405280929190818152602001828054610580906127bc565b80156105cd5780601f106105a2576101008083540402835291602001916105cd565b820191906000526020600020905b8154815290600101906020018083116105b057829003601f168201915b5050505050905090565b60006105e282610f61565b506105ec82610fe9565b9050919050565b6106058282610600611026565b61102e565b5050565b600073ffffffffffffffffffffffffffffffffffffffff168273ffffffffffffffffffffffffffffffffffffffff160361067b5760006040517f64a0ae920000000000000000000000000000000000000000000000000000000081526004016106729190612282565b60405180910390fd5b600061068f838361068a611026565b611040565b90508373ffffffffffffffffffffffffffffffffffffffff168173ffffffffffffffffffffffffffffffffffffffff1614610705578382826040517f64283d7b0000000000000000000000000000000000000000000000000000000081526004016106fc939291906127ed565b60405180910390fd5b50505050565b6060600061071883610bba565b6107218461076f565b91509150915091565b61074583838360405180602001604052806000815250610b95565b505050565b6060600061075783610bba565b6107608461076f565b91509150915091565b60095481565b600061077a82610f61565b9050919050565b600a5481565b60006008549050610798338261125a565b6107a28183611278565b600860008154809291906107b590612853565b91905055503373ffffffffffffffffffffffffffffffffffffffff16817f06becd955c918828f6e985541acbf49cc842c9e9bd569fffc7698e721ef135758460405161080191906121bc565b60405180910390a35050565b60008073ffffffffffffffffffffffffffffffffffffffff168273ffffffffffffffffffffffffffffffffffffffff16036108805760006040517f89c62b640000000000000000000000000000000000000000000000000000000081526004016108779190612282565b60405180910390fd5b600360008373ffffffffffffffffffffffffffffffffffffffff1673ffffffffffffffffffffffffffffffffffffffff168152602001908152602001600020549050919050565b6108cf6112d4565b6108d9600061135b565b565b6000600760009054906101000a900473ffffffffffffffffffffffffffffffffffffffff16905090565b3373ffffffffffffffffffffffffffffffffffffffff166109258261076f565b73ffffffffffffffffffffffffffffffffffffffff161461097b576040517f08c379a0000000000000000000000000000000000000000000000000000000008152600401610972906128e7565b60405180910390fd5b600073ffffffffffffffffffffffffffffffffffffffff168273ffffffffffffffffffffffffffffffffffffffff16036109ea576040517f08c379a00000000000000000000000000000000000000000000000000000000081526004016109e190612953565b60405180910390fd5b6109f5338383611421565b8173ffffffffffffffffffffffffffffffffffffffff163373ffffffffffffffffffffffffffffffffffffffff16827f67043fac5fd2bf9edbb46ee495aaed7f97f91d43507d373be2b592af19b8c0a860405160405180910390a45050565b606060018054610a63906127bc565b80601f0160208091040260200160405190810160405280929190818152602001828054610a8f906127bc565b8015610adc5780601f10610ab157610100808354040283529160200191610adc565b820191906000526020600020905b815481529060010190602001808311610abf57829003601f168201915b5050505050905090565b610af8610af1611026565b838361158e565b5050565b60085481565b60006103e8600954610b149190612973565b9050610b20338261125a565b610b2a8183611278565b60096000815480929190610b3d90612853565b91905055503373ffffffffffffffffffffffffffffffffffffffff16817ffd35ff6d3cc9c0752356de6de007c598d1c8f3fc577f3679acac3c33ea50aba784604051610b8991906121bc565b60405180910390a35050565b610ba0848484610609565b610bb4610bab611026565b858585856116fd565b50505050565b6060610bc582610f61565b506000600660008481526020019081526020016000208054610be6906127bc565b80601f0160208091040260200160405190810160405280929190818152602001828054610c12906127bc565b8015610c5f5780601f10610c3457610100808354040283529160200191610c5f565b820191906000526020600020905b815481529060010190602001808311610c4257829003601f168201915b505050505090506000610c706118ae565b90506000815103610c85578192505050610cc8565b600082511115610cba578082604051602001610ca29291906129e3565b60405160208183030381529060405292505050610cc8565b610cc3846118c5565b925050505b919050565b600080600a8190555060008390506014811115610d1f576040517f08c379a0000000000000000000000000000000000000000000000000000000008152600401610d1690612a79565b60405180910390fd5b60005b81811015610d5857610d3384610b02565b600a6000815480929190610d4690612853565b91905055508080600101915050610d22565b50600a5491505092915050565b6000600560008473ffffffffffffffffffffffffffffffffffffffff1673ffffffffffffffffffffffffffffffffffffffff16815260200190815260200160002060008373ffffffffffffffffffffffffffffffffffffffff1673ffffffffffffffffffffffffffffffffffffffff16815260200190815260200160002060009054906101000a900460ff16905092915050565b610e016112d4565b600073ffffffffffffffffffffffffffffffffffffffff168173ffffffffffffffffffffffffffffffffffffffff1603610e735760006040517f1e4fbdf7000000000000000000000000000000000000000000000000000000008152600401610e6a9190612282565b60405180910390fd5b610e7c8161135b565b50565b60007f80ac58cd000000000000000000000000000000000000000000000000000000007bffffffffffffffffffffffffffffffffffffffffffffffffffffffff1916827bffffffffffffffffffffffffffffffffffffffffffffffffffffffff19161480610f4a57507f5b5e139f000000000000000000000000000000000000000000000000000000007bffffffffffffffffffffffffffffffffffffffffffffffffffffffff1916827bffffffffffffffffffffffffffffffffffffffffffffffffffffffff1916145b80610f5a5750610f598261192e565b5b9050919050565b600080610f6d83611998565b9050600073ffffffffffffffffffffffffffffffffffffffff168173ffffffffffffffffffffffffffffffffffffffff1603610fe057826040517f7e273289000000000000000000000000000000000000000000000000000000008152600401610fd7919061239b565b60405180910390fd5b80915050919050565b60006004600083815260200190815260200160002060009054906101000a900473ffffffffffffffffffffffffffffffffffffffff169050919050565b600033905090565b61103b83838360016119d5565b505050565b60008061104c84611998565b9050600073ffffffffffffffffffffffffffffffffffffffff168373ffffffffffffffffffffffffffffffffffffffff161461108e5761108d818486611b9a565b5b600073ffffffffffffffffffffffffffffffffffffffff168173ffffffffffffffffffffffffffffffffffffffff161461111f576110d06000856000806119d5565b6001600360008373ffffffffffffffffffffffffffffffffffffffff1673ffffffffffffffffffffffffffffffffffffffff168152602001908152602001600020600082825403925050819055505b600073ffffffffffffffffffffffffffffffffffffffff168573ffffffffffffffffffffffffffffffffffffffff16146111a2576001600360008773ffffffffffffffffffffffffffffffffffffffff1673ffffffffffffffffffffffffffffffffffffffff168152602001908152602001600020600082825401925050819055505b846002600086815260200190815260200160002060006101000a81548173ffffffffffffffffffffffffffffffffffffffff021916908373ffffffffffffffffffffffffffffffffffffffff160217905550838573ffffffffffffffffffffffffffffffffffffffff168273ffffffffffffffffffffffffffffffffffffffff167fddf252ad1be2c89b69c2b068fc378daa952ba7f163c4a11628f55a4df523b3ef60405160405180910390a4809150509392505050565b611274828260405180602001604052806000815250611c5e565b5050565b806006600084815260200190815260200160002090816112989190612c45565b507ff8e1a15aba9398e019f0b49df1a4fde98ee17ae345cb5f6b5e2c27f5033e8ce7826040516112c8919061239b565b60405180910390a15050565b6112dc611026565b73ffffffffffffffffffffffffffffffffffffffff166112fa6108db565b73ffffffffffffffffffffffffffffffffffffffff16146113595761131d611026565b6040517f118cdaa70000000000000000000000000000000000000000000000000000000081526004016113509190612282565b60405180910390fd5b565b6000600760009054906101000a900473ffffffffffffffffffffffffffffffffffffffff16905081600760006101000a81548173ffffffffffffffffffffffffffffffffffffffff021916908373ffffffffffffffffffffffffffffffffffffffff1602179055508173ffffffffffffffffffffffffffffffffffffffff168173ffffffffffffffffffffffffffffffffffffffff167f8be0079c531659141344cd1fd0a4f28419497f9722a3daafe3b4186f6b6457e060405160405180910390a35050565b600073ffffffffffffffffffffffffffffffffffffffff168273ffffffffffffffffffffffffffffffffffffffff16036114935760006040517f64a0ae9200000000000000000000000000000000000000000000000000000000815260040161148a9190612282565b60405180910390fd5b60006114a183836000611040565b9050600073ffffffffffffffffffffffffffffffffffffffff168173ffffffffffffffffffffffffffffffffffffffff160361151457816040517f7e27328900000000000000000000000000000000000000000000000000000000815260040161150b919061239b565b60405180910390fd5b8373ffffffffffffffffffffffffffffffffffffffff168173ffffffffffffffffffffffffffffffffffffffff1614611588578382826040517f64283d7b00000000000000000000000000000000000000000000000000000000815260040161157f939291906127ed565b60405180910390fd5b50505050565b600073ffffffffffffffffffffffffffffffffffffffff168273ffffffffffffffffffffffffffffffffffffffff16036115ff57816040517f5b08ba180000000000000000000000000000000000000000000000000000000081526004016115f69190612282565b60405180910390fd5b80600560008573ffffffffffffffffffffffffffffffffffffffff1673ffffffffffffffffffffffffffffffffffffffff16815260200190815260200160002060008473ffffffffffffffffffffffffffffffffffffffff1673ffffffffffffffffffffffffffffffffffffffff16815260200190815260200160002060006101000a81548160ff0219169083151502179055508173ffffffffffffffffffffffffffffffffffffffff168373ffffffffffffffffffffffffffffffffffffffff167f17307eab39ab6107e8899845ad3d59bd9653f200f220920489ca2b5937696c31836040516116f09190612111565b60405180910390a3505050565b60008373ffffffffffffffffffffffffffffffffffffffff163b11156118a7578273ffffffffffffffffffffffffffffffffffffffff1663150b7a02868685856040518563ffffffff1660e01b815260040161175c9493929190612d6c565b6020604051808303816000875af192505050801561179857506040513d601f19601f820116820180604052508101906117959190612dcd565b60015b61181c573d80600081146117c8576040519150601f19603f3d011682016040523d82523d6000602084013e6117cd565b606091505b50600081510361181457836040517f64a0ae9200000000000000000000000000000000000000000000000000000000815260040161180b9190612282565b60405180910390fd5b805160208201fd5b63150b7a0260e01b7bffffffffffffffffffffffffffffffffffffffffffffffffffffffff1916817bffffffffffffffffffffffffffffffffffffffffffffffffffffffff1916146118a557836040517f64a0ae9200000000000000000000000000000000000000000000000000000000815260040161189c9190612282565b60405180910390fd5b505b5050505050565b606060405180602001604052806000815250905090565b60606118d082610f61565b5060006118db6118ae565b905060008151116118fb5760405180602001604052806000815250611926565b8061190584611c82565b6040516020016119169291906129e3565b6040516020818303038152906040525b915050919050565b60007f01ffc9a7000000000000000000000000000000000000000000000000000000007bffffffffffffffffffffffffffffffffffffffffffffffffffffffff1916827bffffffffffffffffffffffffffffffffffffffffffffffffffffffff1916149050919050565b60006002600083815260200190815260200160002060009054906101000a900473ffffffffffffffffffffffffffffffffffffffff169050919050565b8080611a0e5750600073ffffffffffffffffffffffffffffffffffffffff168273ffffffffffffffffffffffffffffffffffffffff1614155b15611b42576000611a1e84610f61565b9050600073ffffffffffffffffffffffffffffffffffffffff168373ffffffffffffffffffffffffffffffffffffffff1614158015611a8957508273ffffffffffffffffffffffffffffffffffffffff168173ffffffffffffffffffffffffffffffffffffffff1614155b8015611a9c5750611a9a8184610d65565b155b15611ade57826040517fa9fbf51f000000000000000000000000000000000000000000000000000000008152600401611ad59190612282565b60405180910390fd5b8115611b4057838573ffffffffffffffffffffffffffffffffffffffff168273ffffffffffffffffffffffffffffffffffffffff167f8c5be1e5ebec7d5bd14f71427d1e84f3dd0314c0f7b2291e5b200ac8c7c3b92560405160405180910390a45b505b836004600085815260200190815260200160002060006101000a81548173ffffffffffffffffffffffffffffffffffffffff021916908373ffffffffffffffffffffffffffffffffffffffff16021790555050505050565b611ba5838383611d50565b611c5957600073ffffffffffffffffffffffffffffffffffffffff168373ffffffffffffffffffffffffffffffffffffffff1603611c1a57806040517f7e273289000000000000000000000000000000000000000000000000000000008152600401611c11919061239b565b60405180910390fd5b81816040517f177e802f000000000000000000000000000000000000000000000000000000008152600401611c50929190612dfa565b60405180910390fd5b505050565b611c688383611e11565b611c7d611c73611026565b60008585856116fd565b505050565b606060006001611c9184611f0a565b01905060008167ffffffffffffffff811115611cb057611caf6123c0565b5b6040519080825280601f01601f191660200182016040528015611ce25781602001600182028036833780820191505090505b509050600082602083010190505b600115611d45578080600190039150507f3031323334353637383961626364656600000000000000000000000000000000600a86061a8153600a8581611d3957611d38612e23565b5b04945060008503611cf0575b819350505050919050565b60008073ffffffffffffffffffffffffffffffffffffffff168373ffffffffffffffffffffffffffffffffffffffff1614158015611e0857508273ffffffffffffffffffffffffffffffffffffffff168473ffffffffffffffffffffffffffffffffffffffff161480611dc95750611dc88484610d65565b5b80611e0757508273ffffffffffffffffffffffffffffffffffffffff16611def83610fe9565b73ffffffffffffffffffffffffffffffffffffffff16145b5b90509392505050565b600073ffffffffffffffffffffffffffffffffffffffff168273ffffffffffffffffffffffffffffffffffffffff1603611e835760006040517f64a0ae92000000000000000000000000000000000000000000000000000000008152600401611e7a9190612282565b60405180910390fd5b6000611e9183836000611040565b9050600073ffffffffffffffffffffffffffffffffffffffff168173ffffffffffffffffffffffffffffffffffffffff1614611f055760006040517f73c6ac6e000000000000000000000000000000000000000000000000000000008152600401611efc9190612282565b60405180910390fd5b505050565b600080600090507a184f03e93ff9f4daa797ed6e38ed64bf6a1f0100000000000000008310611f68577a184f03e93ff9f4daa797ed6e38ed64bf6a1f0100000000000000008381611f5e57611f5d612e23565b5b0492506040810190505b6d04ee2d6d415b85acef81000000008310611fa5576d04ee2d6d415b85acef81000000008381611f9b57611f9a612e23565b5b0492506020810190505b662386f26fc100008310611fd457662386f26fc100008381611fca57611fc9612e23565b5b0492506010810190505b6305f5e1008310611ffd576305f5e1008381611ff357611ff2612e23565b5b0492506008810190505b612710831061202257612710838161201857612017612e23565b5b0492506004810190505b60648310612045576064838161203b5761203a612e23565b5b0492506002810190505b600a8310612054576001810190505b80915050919050565b6000604051905090565b600080fd5b600080fd5b60007fffffffff0000000000000000000000000000000000000000000000000000000082169050919050565b6120a681612071565b81146120b157600080fd5b50565b6000813590506120c38161209d565b92915050565b6000602082840312156120df576120de612067565b5b60006120ed848285016120b4565b91505092915050565b60008115159050919050565b61210b816120f6565b82525050565b60006020820190506121266000830184612102565b92915050565b600081519050919050565b600082825260208201905092915050565b60005b8381101561216657808201518184015260208101905061214b565b60008484015250505050565b6000601f19601f8301169050919050565b600061218e8261212c565b6121988185612137565b93506121a8818560208601612148565b6121b181612172565b840191505092915050565b600060208201905081810360008301526121d68184612183565b905092915050565b6000819050919050565b6121f1816121de565b81146121fc57600080fd5b50565b60008135905061220e816121e8565b92915050565b60006020828403121561222a57612229612067565b5b6000612238848285016121ff565b91505092915050565b600073ffffffffffffffffffffffffffffffffffffffff82169050919050565b600061226c82612241565b9050919050565b61227c81612261565b82525050565b60006020820190506122976000830184612273565b92915050565b6122a681612261565b81146122b157600080fd5b50565b6000813590506122c38161229d565b92915050565b600080604083850312156122e0576122df612067565b5b60006122ee858286016122b4565b92505060206122ff858286016121ff565b9150509250929050565b60008060006060848603121561232257612321612067565b5b6000612330868287016122b4565b9350506020612341868287016122b4565b9250506040612352868287016121ff565b9150509250925092565b600060408201905081810360008301526123768185612183565b90506123856020830184612273565b9392505050565b612395816121de565b82525050565b60006020820190506123b0600083018461238c565b92915050565b600080fd5b600080fd5b7f4e487b7100000000000000000000000000000000000000000000000000000000600052604160045260246000fd5b6123f882612172565b810181811067ffffffffffffffff82111715612417576124166123c0565b5b80604052505050565b600061242a61205d565b905061243682826123ef565b919050565b600067ffffffffffffffff821115612456576124556123c0565b5b61245f82612172565b9050602081019050919050565b82818337600083830152505050565b600061248e6124898461243b565b612420565b9050828152602081018484840111156124aa576124a96123bb565b5b6124b584828561246c565b509392505050565b600082601f8301126124d2576124d16123b6565b5b81356124e284826020860161247b565b91505092915050565b60006020828403121561250157612500612067565b5b600082013567ffffffffffffffff81111561251f5761251e61206c565b5b61252b848285016124bd565b91505092915050565b60006020828403121561254a57612549612067565b5b6000612558848285016122b4565b91505092915050565b61256a816120f6565b811461257557600080fd5b50565b60008135905061258781612561565b92915050565b600080604083850312156125a4576125a3612067565b5b60006125b2858286016122b4565b92505060206125c385828601612578565b9150509250929050565b600067ffffffffffffffff8211156125e8576125e76123c0565b5b6125f182612172565b9050602081019050919050565b600061261161260c846125cd565b612420565b90508281526020810184848401111561262d5761262c6123bb565b5b61263884828561246c565b509392505050565b600082601f830112612655576126546123b6565b5b81356126658482602086016125fe565b91505092915050565b6000806000806080858703121561268857612687612067565b5b6000612696878288016122b4565b94505060206126a7878288016122b4565b93505060406126b8878288016121ff565b925050606085013567ffffffffffffffff8111156126d9576126d861206c565b5b6126e587828801612640565b91505092959194509250565b6000806040838503121561270857612707612067565b5b6000612716858286016121ff565b925050602083013567ffffffffffffffff8111156127375761273661206c565b5b612743858286016124bd565b9150509250929050565b6000806040838503121561276457612763612067565b5b6000612772858286016122b4565b9250506020612783858286016122b4565b9150509250929050565b7f4e487b7100000000000000000000000000000000000000000000000000000000600052602260045260246000fd5b600060028204905060018216806127d457607f821691505b6020821081036127e7576127e661278d565b5b50919050565b60006060820190506128026000830186612273565b61280f602083018561238c565b61281c6040830184612273565b949350505050565b7f4e487b7100000000000000000000000000000000000000000000000000000000600052601160045260246000fd5b600061285e826121de565b91507fffffffffffffffffffffffffffffffffffffffffffffffffffffffffffffffff82036128905761288f612824565b5b600182019050919050565b7f4e6f7420746865206f776e657200000000000000000000000000000000000000600082015250565b60006128d1600d83612137565b91506128dc8261289b565b602082019050919050565b60006020820190508181036000830152612900816128c4565b9050919050565b7f496e76616c696420616464726573730000000000000000000000000000000000600082015250565b600061293d600f83612137565b915061294882612907565b602082019050919050565b6000602082019050818103600083015261296c81612930565b9050919050565b600061297e826121de565b9150612989836121de565b92508282019050808211156129a1576129a0612824565b5b92915050565b600081905092915050565b60006129bd8261212c565b6129c781856129a7565b93506129d7818560208601612148565b80840191505092915050565b60006129ef82856129b2565b91506129fb82846129b2565b91508190509392505050565b7f43616e6e6f74206d696e74206d6f7265207468616e203230206174206120746960008201527f6d65000000000000000000000000000000000000000000000000000000000000602082015250565b6000612a63602283612137565b9150612a6e82612a07565b604082019050919050565b60006020820190508181036000830152612a9281612a56565b9050919050565b60008190508160005260206000209050919050565b60006020601f8301049050919050565b600082821b905092915050565b600060088302612afb7fffffffffffffffffffffffffffffffffffffffffffffffffffffffffffffffff82612abe565b612b058683612abe565b95508019841693508086168417925050509392505050565b6000819050919050565b6000612b42612b3d612b38846121de565b612b1d565b6121de565b9050919050565b6000819050919050565b612b5c83612b27565b612b70612b6882612b49565b848454612acb565b825550505050565b600090565b612b85612b78565b612b90818484612b53565b505050565b5b81811015612bb457612ba9600082612b7d565b600181019050612b96565b5050565b601f821115612bf957612bca81612a99565b612bd384612aae565b81016020851015612be2578190505b612bf6612bee85612aae565b830182612b95565b50505b505050565b600082821c905092915050565b6000612c1c60001984600802612bfe565b1980831691505092915050565b6000612c358383612c0b565b9150826002028217905092915050565b612c4e8261212c565b67ffffffffffffffff811115612c6757612c666123c0565b5b612c7182546127bc565b612c7c828285612bb8565b600060209050601f831160018114612caf5760008415612c9d578287015190505b612ca78582612c29565b865550612d0f565b601f198416612cbd86612a99565b60005b82811015612ce557848901518255600182019150602085019450602081019050612cc0565b86831015612d025784890151612cfe601f891682612c0b565b8355505b6001600288020188555050505b505050505050565b600081519050919050565b600082825260208201905092915050565b6000612d3e82612d17565b612d488185612d22565b9350612d58818560208601612148565b612d6181612172565b840191505092915050565b6000608082019050612d816000830187612273565b612d8e6020830186612273565b612d9b604083018561238c565b8181036060830152612dad8184612d33565b905095945050505050565b600081519050612dc78161209d565b92915050565b600060208284031215612de357612de2612067565b5b6000612df184828501612db8565b91505092915050565b6000604082019050612e0f6000830185612273565b612e1c602083018461238c565b9392505050565b7f4e487b7100000000000000000000000000000000000000000000000000000000600052601260045260246000fdfea264697066735822122002b4e70ccca21205da1a038a9148285200540735271a05bb1c61d0b29a31a35e64736f6c634300081c0033",
  "linkReferences": {},
  "deployedLinkReferences": {}
}